:020000040800F2
:10000000E015002005010008EF1E0008C9170008D0
:10001000511E00088B020008834600080000000003
:10002000000000000000000000000000BF2B0008DE
:10003000210300080000000005220008C12B000871
:100040001F0100081F0100081F0100081F01000810
:100050001F0100081F0100081F0100081F01000800
:100060001F0100081F0100081F0100081F010008F0
:100070001F0100081F0100081F0100081F010008E0
:100080001F0100081F0100081F0100081F010008D0
:100090000D4600081F0100081F0100081F0100088D
:1000A0001F0100081F0100081F0100081F010008B0
:1000B0001F0100081F0100081F0100081F010008A0
:1000C0001F0100081F0100081F0100081F01000890
:1000D0001F0100081F0100081F0100081F01000880
:1000E0001F0100081F0100081F010008DFF810D0E1
:1000F00000F04EF800480047D14C0008AFF30080F4
:10010000E01500200648804706480047FEE7FEE766
:10011000FEE7FEE7FEE7FEE7FEE7FEE7FEE7FEE7B7
:10012000712C0008ED000008202A04DB203A21FA97
:1001300002F00021704721FA02F3D040C2F1200200
:10014000914008431946704740EA01039B0703D0DA
:1001500009E008C9121F08C0042AFAD203E011F806
:10016000013B00F8013B521EF9D27047D2B201E0C8
:1001700000F8012B491EFBD270470022F6E710B5AC
:1001800013460A4604461946FFF7F0FF204610BD05
:10019000064C074D06E0E06840F0010394E80700D4
:1001A00098471034AC42F6D3FFF7A4FF205D000857
:1001B000405D000870B58C1810F8015B15F007035E
:1001C00001D110F8013B2A1106D110F8012B03E0F0
:1001D00010F8016B01F8016B5B1EF9D12B0705D4F8
:1001E0000023521E0DD401F8013BFAE710F8013B41
:1001F000CB1A921C03E013F8015B01F8015B521E5D
:10020000F9D5A142D8D3002070BD2DE9FF41174692
:100210000E468046002400F1F00516E01022294623
:100220006846FFF791FF4146684600F02FF869469F
:100230000020325C0B5C5A403254401CC0B2102883
:10024000F7D3284600F0F8F81034BC42E6D3BDE8F6
:10025000FF811022F030FFF777BFF0B500240023B4
:1002600004EB800601EB840503EB860CEF5C12F8CF
:100270000CC087EA0C07EF545B1CDBB2042BF3D3F2
:10028000641CE4B2042CEAD3F0BDFEE72DE9F04192
:100290000F460A46044601460020FFF7DEFF1F4EC8
:1002A000012500205FF0000104EB8102491C135C72
:1002B000C9B20429F35C1354F6D3401CC0B204281D
:1002C000F0D3607861796170617A6171617B61728C
:1002D0006073A078A17AA170A072A079A17BA171AE
:1002E000A073E078E17BE170E17AE173E179E1729A
:1002F000E0710E2D0AD0204601F0ACFD3A462146B1
:100300002846FFF7AAFF6D1CEDB2CAE73A46214620
:10031000BDE8F0410E20FFF7A0BF0000724E0008BC
:100320007047704706490020C8610648016941F0DE
:1003300004010161016941F0400101617047000061
:10034000C011002000200240064A0021D161064968
:100350000A6942F002020A614861086940F04000FF
:1003600008617047C011002000200240044B0022A9
:10037000DA61044A136943F0010313610180704795
:10038000C01100200020024014480022C168CB06A2
:10039000134904D5CA6942F00202CA611022C36837
:1003A0005B0705D5CB6943F00103CB6142F0040242
:1003B000C369DB0707D0CB6943F00403CB61C16994
:1003C00021F00101C161A2F58071013901D0C26043
:1003D0007047C16921F00101C161704700200240EE
:1003E000C011002070B5054600F004FA0646114C15
:1003F00009E0681C07D025B100F0FCF9801BA84279
:1004000001D9032070BDE068C007F2D1E068800622
:1004100001D52020E060E068C00605D4E069C0078F
:1004200002D1E068400703D5FFF7AEFF012070BDA1
:10043000002070BD002002401FB504460146102276
:100440006846FFF781FEDDE90001029A029BD208AF
:1004500080EA910182EAD3125140039A400881EA6E
:100460005212019940EAC1700090480840EAC370F6
:1004700001900399580840EAC1700290480840EA88
:10048000C2700390102269462046FFF75DFE1FBD33
:10049000064810B54FF0FF31C16000220261C16013
:1004A000C26000F025FC002010BD000000100240DA
:1004B0002DE9F047054626480F460126017E012911
:1004C0000FD00121814601762868DFF888804CF240
:1004D0005034022808D0A2462046FFF783FFA8B177
:1004E00031E00220BDE8F0872046FFF77BFF08BB24
:1004F0000120FFF717FF2046FFF774FFD8F8101010
:10050000064621F00401C8F810101CE04FF0FF303F
:100510003860AC6811E02046FFF716FF5046FFF741
:1005200061FFD8F81010060021F00201C8F8101081
:1005300001D03C6007E004F58064D5E9020100EBDE
:100540008120A042E7D8002189F818103046C9E779
:10055000C0110020002002400348016941F08001E1
:100560000161002070470000002002402DE9F05F8B
:1005700007461C4888460024017E15461E46012970
:1005800009D00121814601764CF2503A5046FFF7DE
:1005900029FF18B122E00220BDE8F09F012F02D010
:1005A000022F00D00427D346DFF83CA022012846C2
:1005B0003146FFF7B9FD81B208EB4400FFF7D6FEE4
:1005C0005846FFF70FFFDAF8102022F00102CAF8B0
:1005D000102018B9641CE4B2BC42E7D3002289F8A9
:1005E0001820D9E7C0110020002002400649002051
:1005F0000A69120607D5054A4A60054A4A60096930
:10060000090600D5012070470020024023016745FC
:10061000AB89EFCD2DE9F84FDFF8B891002409F14F
:10062000040A0AF1040B23460F270BF1040EC9E05C
:100630000125A5402A40AA427DD1674ED1F804C0C9
:10064000ACEB0608B44532D014DCBCF1030F3AD051
:1006500009DCBCF1000F2AD0BCF1010F1CD0BCF1A9
:10066000020F31D11DE0BCF1110F17D0BCF1120FF8
:100670002AD119E0B8F5881F19D006DCB8F5803FFB
:1006800015D0B8F5801F1FD111E0B8F5001F0ED0AE
:10069000B8F5041F18D10AE0CB6815E0CB681B1D24
:1006A00012E0CB6808330FE0CB680C330CE08B68AA
:1006B0002BB1012B4FF0080303D0456104E0042364
:1006C00002E0056100E00023FF2A01D8064601E0B0
:1006D00000F104064FEA840501D9A5F12005D6F8FA
:1006E000008007FA05FC28EA0C0803FA05F548EA39
:1006F0000508C6F800804D68ED0062D5374DAE693B
:1007000046F00106AE61AD6924F0030605F001056F
:100710000095334D06EB050CDCF80850A607360FA4
:1007200007FA06F825EA0805DFF8B880404503D146
:100730004FF0000817E044E0DFF8AC80404502D1FC
:100740004FF001080FE0DFF8A480404502D14FF0E0
:10075000020808E0DFF89880404502D14FF0030816
:1007600001E04FF0040808FA06F848EA0508CCF85A
:1007700008804D68D9F80060ED034D4601D5164359
:1007800000E096432E604D68DAF80060AD035546F0
:1007900001D5164300E096432E604D68DBF80060FB
:1007A000ED025D4601D5164300E096432E604D688C
:1007B000DEF80060AD02754601D5164300E09643B1
:1007C0002E60641C0D682A46E5407FF431AFBDE819
:1007D000F88F0000000401400000111000100240DA
:1007E0000000014000080140000C014000100140E1
:1007F0000014014001488068704700009400002008
:1008000070B5040025D094F83D00002520B984F887
:100810003C50204600F004FA242084F83D00206873
:10082000016821F0010101602068016841F4004184
:1008300001602068016821F40041016000F0A0FF20
:100840004D4A6168914201D84C4900E04C498842C8
:1008500001D2012070BD4B492368B0FBF1F15E6805
:1008600026F03F060E435E606368934206D94FF45C
:10087000967359434FF47A73B1FBF3F12368491C23
:100880001E6A26F03F06314319626168914210D812
:100890004900401EB0FBF1F2521CC2F30B02042AC5
:1008A00001D2042022E0B0FBF1F0401CC0F30B00A9
:1008B0001CE0A268F2B301EBC10303EB0116431E77
:1008C000B3FBF6F35B1C43F480431B0549D092B3A2
:1008D00001EBC10202EB0111401EB0FBF1F0401C24
:1008E000C0F30B0040F4804040F400402168CA6926
:1008F0004CF6FF739A431043C861D4E907100143D3
:100900002068026822F0C00211430160D4E90301AB
:1009100001432068826848F2FF339A4311438160A3
:10092000D4E9050108432168CA6822F0FF02104398
:10093000C86001E00EE016E02068016841F00101A6
:1009400001602564202084F83D00256384F83E5032
:10095000002070BD01EB4106431EB3FBF6F35B1CA8
:10096000B3E70120C2E701EB4101401EB0FBF1F00B
:10097000401CC0F30B00B7E7A086010080841E0076
:1009800000093D0040420F002DE9FF4F81B089462C
:100990000446FFF72FFF054694F83D004FF001088D
:1009A00020287DD11923012250492046009500F0CE
:1009B00097FF002874D194F83C00012870D00120E2
:1009C00084F83C0020680168C90703D1016841F040
:1009D000010101602068016821F4006101602420A8
:1009E00084F83D00002626644148E0624FF0011B78
:1009F00020272068016841F4807101600095002281
:100A000059462046049B00F06BFF50B120680068F7
:100A1000C00502D54FF400702064032005B0BDE886
:100A2000F08F216809F0FE000861FFF7E3FE2168FE
:100A3000054648694969C0F34000C1F380214FF081
:100A4000A00A0FE0FFF7D6FE411B0498814200D8B0
:100A500008B984F83DA0216848694969C0F340009D
:100A6000C1F3802194F83D20A02A02D008B90029C2
:100A7000E8D084F83D7020684169C943890716D4DD
:100A8000016841F40071016020684169806919239F
:100A9000012216492046009500F022FFB8B900E077
:100AA00021E084F83D7084F83C600020B6E70168DE
:100AB00041F40071016021686FF48060486119237E
:100AC00001220A492046009500F00AFF08B10120E2
:100AD000A4E7039808F1010880458AD384F83D70A3
:100AE00084F83C60F3E7022098E700000200100061
:100AF0000000FFFF2DE9F84F1F4690468A46044646
:100B0000DDF82890FFF776FE054694F83D00202892
:100B10007FD11923012240492046009500F0E0FED4
:100B2000002876D194F83C00012872D0012084F886
:100B30003C0020680168C90703D1016841F0010148
:100B400001602068016821F400610160212084F8BF
:100B50003D00102084F83E0000262664C4F824805E
:100B60006785608D20852D48E0622B464A465146B8
:100B7000204600F041FE90B92068416980690090EC
:100B800036E02A464946204600F029FF50B1206C45
:100B9000042804D12068016841F40071016001203B
:100BA000BDE8F88F606A216800780861606A401CBF
:100BB0006062618D491E6185218D491E89B2218542
:100BC00022685369DB435B070BD451B10078106195
:100BD000606A401C6062608D401E6085208D401EF2
:100BE00020852A464946204600F054FE0028CED1F2
:100BF000208D0028C5D154F83D0B016841F40071E7
:100C00000160202004F81E09E67766770020C7E718
:100C1000FFE70220C4E70000020010000000FFFF11
:100C200010B586B0002100910191029103910068F6
:100C30000F4988421AD10F4CA06940F00800A0610A
:100C4000A069694600F008000490C02000901220BE
:100C50000190032003900848FFF7DCFCE06940F4B2
:100C60000010E061E06900F40010049006B010BDCF
:100C70000054004000100240000C0140024881680E
:100C8000027811448160704794000020074810B535
:100C9000016841F010010160032000F077F80020A6
:100CA00000F006F800F026F8002010BD00200240F9
:100CB00070B50D4D04464FF47A712878B1FBF0F011
:100CC0000A490968B1FBF0F000F06AFD48B9102C40
:100CD00007D200222146501E00F038F800206C6038
:100CE00070BD012070BD000094000020A000002015
:100CF000704700000C4808B5816941F0010181612D
:100D0000816901F001010091C16941F08051C16127
:100D1000C06900F0805000900448416821F0E06113
:100D200041F00071416008BD001002400000014028
:100D3000002809DB00F01F020121914040098000DA
:100D400000F1E020C0F8001170470000F0B40E4B35
:100D50001B680C46C3F30223C3F10705042D00D919
:100D60000425191D072901D2002300E0DB1E0126FE
:100D700006FA05F1491E214099409E40761E164014
:100D80003143F0BC03F07EBC0CED00E0064900F0FE
:100D9000070208684FF6FF03184040EA0220034AA2
:100DA00010430860704700000CED00E00000FA05F9
:100DB00010B50C0607D501F0070101EB810100EB2E
:100DC000C100283005E001EB810100EBC10000F516
:100DD000B47099B232B1012202730181190C4181C0
:100DE000002010BD00220273C180F9E7704701EBBB
:100DF000810200EBC202D0F8E802D26B02F094B993
:100E000001EB810200EBC202D0F8E802D2F87C21AB
:100E100002F0F5B970B504460B0601F0070000EBCF
:100E2000800104EBC1014FF001024FF0000503D532
:100E300081F82920283103E081F8695101F5B47166
:100E4000087094F8A802012808D084F8A822206825
:100E500002F0D6FF84F8A852002070BD022070BDB9
:100E600070B5044601F00F006268904201D901207C
:100E700070BD0B0601F0070000EB800104EBC1011F
:100E80004FF001024FF0000503D581F829202831E9
:100E900003E081F8695101F5B4718D70087094F820
:100EA000A802012808D084F8A822206803F045F899
:100EB00084F8A852002070BD022070BD2DE9F05FBB
:100EC00004685FEA424C0B788D69B4F850C04FF06B
:100ED00000064BF68F7948F2800A48F68F7B48F27D
:100EE000C00E4FF480672AD54FF0020808EBC30804
:100EF000C44407EB4C07E45BC4F30904A54203D3E5
:100F00002D1B8D6101D00BE08E61066836F82350F1
:100F100005EA090585F4005545EA0A0526F8235037
:100F2000520609D50D78036833F8252002EA0B0232
:100F300042EA0E0223F8252084B30A8929E04FF003
:100F4000060808EBC308C44407EB4C07E45BC4F392
:100F50000904A54203D32D1B8D6101D00BE08E61E6
:100F6000066836F8235005EA090585F4005545EA78
:100F70000A0526F82350520609D40B78056835F87F
:100F8000232002EA0B0242EA0E0225F823202CB1AC
:100F90004A8949690068234603F042FB2046BDE8C0
:100FA000F09F2DE9F05F054600680C465FEA426C51
:100FB00016468B692278B0F850C048F68F774CF20D
:100FC00080094FF6FF7B4FF4004E4FF4806A4FF0DC
:100FD00000017BD54FF0020808EBC208E0440AEBA1
:100FE000480C30F80C00C0F30900834211D91B1AD9
:100FF000A3610FD0730407D52E6836F822303B402A
:1010000043EA090326F8223094F82420012A50D01C
:101010004EE1A161607810B1012813D01AE0286870
:10102000B0F85030184400EB0210B0F8042422F459
:10103000F842A0F80424B0F8042442F40042A0F8D6
:10104000042407E02868B0F85030184400EB021080
:10105000A0F804146278286812B1012A11D018E0AF
:10106000B0F850100844217800EB0110B0F80C14CF
:1010700021F4F841A0F80C14B0F80C1441F400412C
:1010800005E0B0F850201044227800EB0210A0F8E0
:101090000C1421782846FFF7AAFE7004B8D52178F1
:1010A0002A6832F82100384040EA090022F821007D
:1010B000FEE0626902446261E2690244E26123691E
:1010C000226A9A4203D31846111A04E038E084F8E1
:1010D00024100AB110462162617811B1012923D090
:1010E0002BE02968B1F850201144227801EB02115D
:1010F00001F2044148B13E280FD84208C30700D08E
:10110000521C0BEA82220A8017E00A8822F4F84275
:101110000A800A8842F40042F5E74209C30600D17A
:10112000521E4EEA8222EEE72968B1F8502011449F
:10113000227801EB0211A1F8040483B22289B3E002
:101140004FF0060808EBC208E0440AEB480C30F800
:101150000C00C0F30900834211D31B1AA3610FD006
:10116000730407D42E6836F822303B4043EA090363
:1011700026F8223094F82420012A50D098E0A1616A
:10118000607810B1012813D01AE02868B0F8503008
:10119000184400EB0210B0F8042422F4F842A0F83E
:1011A0000424B0F8042442F40042A0F8042407E028
:1011B0002868B0F85030184400EB0210A0F804146E
:1011C0006278286812B1012A11D018E0B0F85010E6
:1011D0000844217800EB0110B0F80C1421F4F84118
:1011E000A0F80C14B0F80C1441F4004105E0B0F87C
:1011F00050201044227800EB0210A0F80C14217843
:101200002846FFF7F4FD700452D42278296831F89B
:101210002200384040EA090021F8220048E06269D3
:1012200002446261E2690244E2612369226A9A42ED
:1012300003D31846111A216204E00AB11046216254
:1012400084F824106278296812B1012A22D029E09A
:10125000B1F850201144227801EB021101F20C4147
:1012600048B13E280FD84208C30700D0521C0BEAF1
:1012700082220A8016E00A8822F4F8420A800A884C
:1012800042F40042F5E74209C30600D1521E4EEA7D
:101290008222EEE7B1F850201144227801EB0211CE
:1012A000A1F80C04628983B26169286803F0D6F959
:1012B00021782A6832F8210048F6BF73184080F080
:1012C000300048F28003184322F821000020BDE8D6
:1012D000F09F10B5044690F8A80201280AD001201A
:1012E00084F8A802080607D501F00701206803F07A
:1012F0008AF904E0022010BD206803F082F9002082
:1013000084F8A80210BD01F0070101EB810100EB98
:10131000C100D0F8840170472DE9F04104460F0662
:1013200001F0070000EB800104EBC1014FF0010662
:101330004FF0000503D581F82960283103E081F8DA
:10134000695101F5B47108700A61CB704A7802B135
:10135000C881022B00D10D7194F8A802012809D090
:1013600084F8A862206802F01DFC284684F8A85280
:10137000BDE8F0810220FBE770B50C4601F00705DF
:1013800005EB850100EBC101C1E95F230022C1F833
:10139000842181F8692181F8685101F5B4716207EF
:1013A000006802F01FFE002070BD70B504460D46B7
:1013B00001F007006168884201D9012070BD29064B
:1013C0004FF000064FF0010207D500EB800104EB5F
:1013D000C10181F82920283107E005EB850104EBE4
:1013E000C10181F8696101F5B4718A70087094F8DF
:1013F000A802012807D084F8A822206802F0D9FDAD
:10140000680702D006E0022070BD04F52C71206848
:1014100002F091FD84F8A862002070BD70B50C4602
:1014200001F0070505EB850100EBC101C1E90F23C0
:10143000012281F84C208B6400234B6481F8292021
:1014400001F8285F6207006802F0CCFD002070BD43
:101450001FB50446006803F0DFF8000402D52046FB
:1014600000F046FD206803F0D7F840050CD5206851
:1014700030F8441F21F480610180204600F01EF9FD
:101480000021204600F035F9206803F0C5F840043B
:1014900005D5206830F8441F21F480410180206880
:1014A00003F0BAF8800405D5206830F8441F21F411
:1014B00000510180206803F0AFF8C00414D5206803
:1014C00030F8401F21F004010180206830F8401FEF
:1014D00021F008010180204600F003F9206830F86F
:1014E000441F21F480510180206803F095F8000525
:1014F0003ED522680020694632F8203021F81030AD
:10150000401CC0B20828F7D332F8400F40F0010069
:101510001080206830F8402F22F0010202802068FD
:10152000B0F844205205FBD530F8442F22F48062F5
:1015300002800020236831F8102023F82020401C6E
:10154000C0B20828F6D3206830F8401F41F00801E7
:101550000180206830F8441F21F400610180206878
:1015600030F8401F41F004010180204600F0F6F8F9
:10157000206803F051F8800508D5206830F8441F32
:1015800021F400710180204600F0AFF8206803F0DC
:1015900043F8C00505D5206830F8441F21F4807158
:1015A00001801FBD2DE9F04186B0040004D094F8FD
:1015B000A902002520B108E0012006B0BDE8F081B5
:1015C00084F8A852204600F05BF8032084F8A902B2
:1015D000206802F0A9FC04F1100114228846684634
:1015E000FEF7B2FD94E80F0002F008FC0226D0BB23
:1015F0000021206803F02AF8002001270FE000BF37
:1016000000EB800104EBC10181F8297001F8280F7B
:10161000C881CD700D614D61401CC0B28D616168A3
:101620008142EDD8002011E000EB800104EBC10104
:1016300081F8695181F8680181F86B51C1F87851DE
:10164000C1F87C51401CC0B2C1F880516168814230
:10165000EAD8142241466846FEF776FD94E80F006A
:1016600002F059FC10B184F8A962A5E784F824506F
:1016700084F8A972206802F04CFC00209DE700006D
:1016800008B500680B49884212D10B48C16941F482
:101690000001C161C069002200F400000090114601
:1016A0001420FFF753FBBDE808401420FFF740BBB0
:1016B00008BD0000005C00400010024070B5044608
:1016C00080680125022801D0FEF72BFE2946D4F8B8
:1016D000E80201F083FED4F8E802BDE8704001F0B2
:1016E0003EBED0F8E80201F063BED0F8E80201F097
:1016F00069BE10B5044690F8A80201280BD001205D
:1017000084F8A80284F82410206802F0A1FF0020C9
:1017100084F8A80210BD022010BDD0F8E82200F520
:101720002C71104601F066BE10B5044690F8A80270
:10173000012810D0012084F8A802206802F058FF88
:1017400001212046FFF752FB206802F0E0FB002059
:1017500084F8A80210BD022010BD000010B5044698
:10176000D0F8E80201F087FEA069002804D0034801
:10177000016841F00601016010BD000010ED00E0BD
:101780000448054900684968044AC1F30221515CD4
:10179000C8407047A000002000100240FE5C000816
:1017A00010B5401EB0F1807F01D3012010BD4FF075
:1017B000E02460610F21601702F064FF0020A06147
:1017C00007202061002010BDFEE701684A69D2436E
:1017D00052050FD46FF480624A61002140F8301F37
:1017E000202242738173026942F004020261017394
:1017F0000120704700207047F8B50446C06A1E46B5
:101800000D461746082807D0012805D010F5803F5F
:1018100002D0206B122804D12068016841F4807145
:101820000160134600224FF001112046009600F09F
:1018300057F840B120680068C00502D54FF4007029
:1018400020640320F8BD2069B0F5804F0ED006203B
:10185000216800EAD51040F0F000086133463A46AE
:101860000B49204600F070F878B902E005F0FE0060
:1018700000E0E8B221680861054933463A46891F0D
:10188000204600F061F80028DCD00120F8BD0000FF
:101890000800010070B516460D4604460DE02046CE
:1018A000FFF793FF08B1012070BD681C05D0FEF75B
:1018B000A1FF801BA84207D835B120684069C0430A
:1018C0004007ECD4002070BD002044F8300F2021E8
:1018D0006173A073216941F0200121612073E2E767
:1018E0002DE9F0471E4690460D460446C1F30747D2
:1018F000DDF8209008E0701C06D0FEF77BFFA0EB1F
:101900000900B0420FD876B12068012F18D0806945
:1019100025EA00000004000C14D000214145EAD063
:101920000020BDE8F087002044F8300F20216173CB
:10193000A073216941F02001216120730120F0E7AB
:101940004069E5E70121E9E72DE9F0479A4691462C
:101950000E46044600254FF02008C1F3074725E056
:1019600020684069C043400514D42068016841F4F0
:101970000071016021686FF480604861256384F81C
:101980003D8084F83E50206C40F00400206484F8D0
:101990003C501FE0B9F1FF3F08D0FEF72BFFA0EB52
:1019A0000A0149450CD8B9F1000F09D02068012F70
:1019B00013D0806926EA00000004000C0BD0CFE7AA
:1019C00044F8305F84F80D80A573206940F0200052
:1019D000206125730120BDE8F0874069EAE770B512
:1019E00016460D4604460DE02046FFF7EEFE08B110
:1019F000012070BD681C05D0FEF7FCFE801BA842CC
:101A000007D835B120684069C0430006ECD40020F7
:101A100070BD002044F8300F20216173A07321694C
:101A200041F0200121612073E2E70000F0B50023BE
:101A30000A24302537261F4611E000BFB4EB107F83
:101A400002D905EB107C01E006EB107C01F813C015
:101A500001EB430C00015B1C8CF80170DBB293427C
:101A6000ECD3F0BD044908B58A6902438A618969EB
:101A70000140009108BD000000100240F0B50A6866
:101A8000C2F30F2595FAA5F2B2FA82F369E00122BA
:101A90009A402A4264D0082B03D240F201129A40A5
:101AA00006E0A3F108024FF00114944044F0806274
:101AB0004C68082C0BD10C69C668170A97FAA7F76F
:101AC000B7FA87F726EA1226BC402643C66092FA88
:101AD000A2F700EB1264B7FA87F74FEA870C0F27DB
:101AE000266807FA0CF7BE4392FAA2F7D1F804E091
:101AF000B7FA87F7BF000EFA07FE46EA0E06266021
:101B00004F68012F01D0092F2AD192FAA2F7B7FA14
:101B100087F74FEA870C032707FA0CF7BE4392FAC0
:101B2000A2F7B7FA87F7D1F808E0BF000EFA07FE70
:101B300092FAA2FC46EA0E06BCFA8CFC4FEA8C0E26
:101B40004FF0040C26600CFA0EFC92FAA2F2B2FAE4
:101B500082F2CF68920026EA0C0697403E43266048
:101B60005B1C35FA03F292D10020F0BD01490860F8
:101B700070470000A000002070B50546D5F8B842B7
:101B800094F81802002808D1D4F8140228B1607A19
:101B900018B90121284601F05CFC8121284601F09A
:101BA00058FC607A022808D104F503722846BDE883
:101BB00070401F23012101F0C9BB70BD70B50546FF
:101BC000D5F8B842D4F81002C4F83002D4F81402A0
:101BD000C4F834020121284601F05FFB1F280DD113
:101BE0002349D4F80C02884208D194F8191201292B
:101BF00004D894F81A220AB1102A0DD994F81912AF
:101C000020230522284600F04EFD0220607228465F
:101C1000BDE87040FFF7B0BF04F21B22284600F079
:101C200057FB00280DDA207A052804D02846BDE8A5
:101C30007040FFF7A1BF2846BDE87040012100F0C9
:101C4000A1B8217A022912D0012910D003290ED07F
:101C5000628932B104F10C012846BDE8704000F001
:101C6000AFB82846BDE87040002100F08BB870BDC9
:101C70005553424310B5D0F8B842627A022A09D0CF
:101C800011F0800F0BD0012A09D0BDE810400121CE
:101C900000F078B8812101F0DCFB0020607210BDFB
:101CA00010B50446D4F8B822117A022909D00329C4
:101CB00001D0042914D12046BDE81040002100F0D5
:101CC00061B892F8191202F21B22204600F000FBC4
:101CD000002805DA2046BDE81040012100F052B886
:101CE00010BD10B50446D4F8B822117A002910D0DE
:101CF000012913D192F8191202F21B22204600F09A
:101D0000E7FA00280ADA2046BDE81040012100F079
:101D100039B82046BDE81040FFF750BF10BDD0F8DD
:101D2000B80200210172704770B50546D5F8B84277
:101D300000202072607284F85D0284F85C02D5F89D
:101D4000BC020168002088470121284601F09CFA66
:101D50008121284601F098FA04F503722846BDE86F
:101D600070401F23012101F0F1BAD0F8B81200220F
:101D70000A7201224A721F2301F50372012101F048
:101D8000E5BA000070B50546D5F8B8420B48C4F86E
:101D90002C0284F83812002020720D2304F50B72F7
:101DA0008121284601F070FB04F503722846BDE846
:101DB00070401F23012101F0C9BA0000555342535E
:101DC00030B49446D0F8B822D2F81432634500D328
:101DD00063469BB2D2F83442A4EB0C0CC2F834C276
:101DE0004FF0000C82F838C24FF0040C82F808C0A3
:101DF0000A4630BC812101F047BB000010B500222B
:101E00000F49104801F068F908B1FEF78AFA0E4947
:101E10000C4801F09DFC08B1FEF783FA0B49094814
:101E200001F0ADFB08B1FEF77CFA064801F042FD77
:101E3000002803D0BDE81040FEF773BA10BD0000C3
:101E400024000020A0070020A8000020740000202B
:101E5000FEE700002DE9F0435FF0000500EB850C84
:101E600010F825209CF801709CF8024082EA0703D4
:101E70009CF803604FEAD31884EA060908EBC80807
:101E800083EA090108EB480888EA43034B405340C2
:101E900000F8253087EA04034FEAD31808EBC80896
:101EA00008EB480888EA43034B405F404FEAD913E8
:101EB00003EBC30303EB430383EA49034B405C405A
:101EC00086EA0203DA0902EBC20202EB420282EA6C
:101ED00043024A408CF8017056406D1C8CF8024059
:101EE000EDB28CF80360042DB8D3BDE8F0837047E1
:101EF0002DE9F84F044640F68F7B48F60F7A4FF0F5
:101F000002094FF4806874E1B0F8441011F00F0634
:101F10003AD030F8267039047DD530F8261001EA21
:101F20000B0141F0800120F8261006EB860004EB3F
:101F3000C00595F8740105F5B47500286CD0E878F3
:101F400002286AD02878226832F8201048F68F7369
:101F5000194048F2C003194322F820102878D4F819
:101F600000C03CF82010BCF8502049047ED509EB95
:101F7000C000111808EB41003CF800008005800DFE
:101F8000009074D02A89D8E0C9062DD4018801EACE
:101F90000A0141F400410180216804F12805B1F8EB
:101FA00050202B7809EBC300024408EB4200085A8A
:101FB000C0F309006064E16B0844E063002120463F
:101FC000FEF715FF94F8240000289CD0A86900288B
:101FD00099D194F82400216840F08000A1F84C00C9
:101FE000002084F8240004E1018804F5B4750A0592
:101FF00021D5B0F850202B78062101EBC3010A440B
:1020000008EB4201405A04F52C71C0F30903EB615F
:10201000EA88206802E0ACE068E07AE002F000FBC9
:102020002168088800EA0B0040F080000880204604
:10203000FFF773FBDDE00904D5D5018801EA0B0148
:1020400041F0800101802068B0F850202B780621F3
:1020500001EBC3010A4408EB4201405A83059B0D82
:10206000EB6110D0696971B1EA8801E058E056E08F
:10207000206802F0D5FAE9696869084468610021BE
:102080002046FEF7BDFE2068018809052DD4B0F872
:1020900050100844296900F20C4051B13E2910D873
:1020A0004A08C90700D0521C4FF6FF7101EA82218D
:1020B0000FE0018821F4F8410180018841F40041DA
:1020C00007E04A09C90600D1521E4FF4004141EA17
:1020D00082210180206801884BF68F72114081F4C3
:1020E000405148F280021143018082E0D4F800C0E0
:1020F000BCF850102A78062000EBC200014408EB1F
:1021000041003CF800008005800D00901AD0EA885C
:1021100013E03A4629462046FEF7D0FE009011E033
:10212000062101EBC000111808EB41003CF800004B
:102130008005800D009005D06A8903466046696974
:1021400002F06EFAE96900980844E861696900984C
:1021500008446861A86918B129690098814204D9C6
:1021600029782046FEF74CFE03E02946206801F05E
:1021700039FF38063DD506EB860004EBC001206828
:1021800030F8262002EA0A0242F4004220F8262013
:1021900091F82B002831032804D018B1022824D14B
:1021A000F80522D42368B3F850200D7809EBC50058
:1021B000024408EB4200185A8A69C0F309008242BF
:1021C0000CD9121A8A610BD04A6902444A61CA6961
:1021D0001044C861206801F005FF0AE00020886112
:1021E000E9B22046FEF703FE03E03A462046FEF73A
:1021F000D8FE2068B0F8441009043FF585AE0020F1
:10220000BDE8F88F704700B5D0F8B8C21A44DCF8C2
:1022100060329A4206D92123052200F044FA4FF099
:10222000FF3000BD002000BDD0F8B83292F801C0E8
:102230001CF0010F0CD0072058811249401E80B2BB
:1022400003EB000C0A5C8CF80C200028F6D117E098
:10225000D0F8BC0201EBC101C06900EB8101087933
:10226000401D1279824200D81046588140B1401E6C
:1022700080B203EB000C0A5C8CF80C200028F6D12D
:1022800000207047065D00080821D0F8B80241819F
:10229000054A491E89B200EB010C535C8CF80C30E6
:1022A0000029F6D100207047155D0008D0F8B8125B
:1022B00008204881054A401E80B201EB000C135CE7
:1022C0008CF80C300028F6D1704700000D5D000836
:1022D00010B51378232B36D00DDC1A2B2DD005DC4E
:1022E000E3B1032B1DD0122B11D11DE01B2B1ED0EF
:1022F0001E2B0CD11EE02A2B2ED004DC252B25D042
:10230000282B04D125E02F2B29D05A2B18D020239D
:10231000052200F0C8F94FF0FF3010BD00F0E3F9DE
:102320001FE000F08CF91CE0FFF77EFF19E000F0E1
:10233000D4F916E000F0D1F913E0FFF7B7FF10E091
:10234000FFF7A2FF0DE000F042F90AE000F012F9F9
:1023500007E000F0A9F804E000F007FA01E000F05F
:10236000E8F9002010BD2DE9F04106460F46D6F8E9
:10237000B842B4F85E02D4F8681201FB00F5B5F576
:10238000007F01D34FF40075B5FBF0F083B2D6F8AF
:10239000BC02D4F8642204F10C01D0F810C0384615
:1023A000E047002809DA112304223946304600F0BC
:1023B0007AF94FF0FF30BDE8F081ABB204F10C02C6
:1023C0008121304601F060F8B4F85E02D4F864224E
:1023D000B5FBF0F11144C4F86412B5FBF0F0D4F889
:1023E0006812081AC4F86802D4F83412491BC4F8F9
:1023F000341208B9032020720020BDE8F0812DE9D5
:10240000F04106460F46D6F8B842B4F85E02D4F85A
:10241000681201FB00F5B5F5007F01D34FF400759C
:10242000B5FBF0F083B2D6F8BC02D4F8642204F114
:102430000C01D0F814C03846E047002809DA03231D
:1024400004223946304600F02EF94FF0FF30BDE847
:10245000F081B4F85E02D4F86422B5FBF0F11144C7
:10246000C4F86412B5FBF0F1D4F86822511AC4F82C
:102470006812D4F83422521BC4F8342279B148438C
:10248000B0F5007F01D34FF4007083B204F10C0269
:102490000121304600F05AFF0020BDE8F081002104
:1024A0003046FFF76FFCF7E72DE9F04106460F468F
:1024B0001546D6F8B842207A002852D194F818026E
:1024C00010F0800F0FD0D6F8BC02826838469047D3
:1024D000A0B13A2302223946304600F0E4F84FF02A
:1024E000FF30BDE8F08194F8191220230522304610
:1024F00000F0D9F84FF0FF30BDE8F0816879A97895
:102500002A7940EA0160E978090441EA022140EAB7
:102510000102C4F86422287AE97940EA0123C4F868
:10252000683239463046FFF76EFE002803DA4FF076
:10253000FF30BDE8F08102202072B4F85E12D4F8BA
:1025400068024843D4F8141288420AD094F8191249
:1025500020230522304600F0A6F84FF0FF30BDE8FA
:10256000F0814FF40070608139463046BDE8F0419B
:10257000FFF7F9BE70B505460E46D5F8B842D5F856
:10258000BC0204F25E22911C43683046984740B179
:102590003A2302223146284600F085F84FF0FF30FA
:1025A00070BDD4F86002401E010E2173010C6173EE
:1025B000010AA173E073002020746074B4F85E0215
:1025C000010AA174E07408206081002070BDF0B59C
:1025D00083B006460F46D6F8B842002000252118E1
:1025E0000D73401C80B20C28F9D3D6F8BC0202AAA5
:1025F00001A943683846984748B13A230222394630
:10260000304600F050F803B04FF0FF30F0BD082026
:10261000E0730198401E010E2174010C6174010ADF
:10262000A174E074022020756575BDF80800010AE8
:10263000A175E0750C20608103B00020F0BD10B4DE
:10264000D0F8B8020021002300EB010C8CF80C300C
:10265000491CC9B21229F7D3702101730C21C1742E
:1026600090F85C1290F85DC2614513D000EBC10C8C
:102670009CF83C4284739CF8414204769CF840C22A
:1026800080F819C0491CC9B280F85C12042901D134
:1026900080F85C32122141811179122900D84181E0
:1026A00010BC00207047D0F8B80290F85D1200EB23
:1026B000C10181F83C2290F85D12002200EBC101BB
:1026C00081F8402290F85D12491CC9B280F85D1271
:1026D000042901D180F85D227047D0F8B8020021AA
:1026E00041810020704770B505460E46D5F8B842C6
:1026F000D4F81402002809D094F8191220230522D6
:102700002846FFF7D0FF4FF0FF3070BDD5F8BC0270
:1027100082683046904748B13A2302223146284623
:10272000FFF7C1FF05202072801F70BD002060816F
:1027300070BD10B5D0F8B842527812F0020F06D032
:1027400024230522FFF7AFFF4FF0FF3010BDD4F870
:102750006832D4F86422FFF756FD002802DA4FF001
:10276000FF3010BD0020608110BD2DE9F04106460C
:102770000F461546D6F8B842207A002805D03946CB
:102780003046BDE8F041FFF73ABE94F8180210F069
:10279000800F0AD094F81912202305223046FFF743
:1027A00082FF4FF0FF30BDE8F081D6F8BC028268AE
:1027B0003846904748B13A23022239463046FFF75F
:1027C00072FF4FF0FF30BDE8F081D6F8BC02C2685E
:1027D0003846904748B12723022239463046FFF752
:1027E00062FF4FF0FF30BDE8F0816879A9782A795F
:1027F00040EA0160E978090441EA022140EA010265
:10280000C4F86422287AE97940EA0123C4F86832DE
:1028100039463046FFF7F7FC002803DA4FF0FF3067
:10282000BDE8F081B4F85E12D4F868024843D4F8E9
:10283000141281420AD094F819122023052230463E
:10284000FFF731FF4FF0FF30BDE8F081B0F5007FBA
:1028500001D34FF400700121217283B204F10C0204
:10286000304600F073FD0020BDE8F08170B580288F
:1028700013D2402911D20B4B012401F007051E7918
:10288000AC40094BC90800EBC1100EB132B101E0F8
:10289000012A03D0195CA143195470BD195C21436E
:1028A000FAE700001C0000204B03002028B1FF22A3
:1028B0004FF480610248FDF759BC0022F8E70000A0
:1028C0004B030020014A1080518070471C000020FB
:1028D00010B502F057FA44F62063012278215448DB
:1028E000FEF752F808B1002010BD40F6C210401E9D
:1028F000FDD1AE220021782002F04AFA20220021E8
:10290000782002F045FA10220021782002F040FAE7
:10291000B0220021782002F03BFAC8220021782062
:1029200002F036FA00221146782002F031FA102225
:102930000021782002F02CFA40220021782002F0B9
:1029400027FA81220021782002F022FAFF220021BA
:10295000782002F01DFAA1220021782002F018FA56
:10296000A6220021782002F013FAA8220021782064
:1029700002F00EFA3F220021782002F009FAA42288
:102980000021782002F004FAD3220021782002F0FE
:10299000FFF900221146782002F0FAF9D522002131
:1029A000782002F0F5F9F0220021782002F0F0F909
:1029B000D9220021782002F0EBF922220021782090
:1029C00002F0E6F9DA220021782002F0E1F9122281
:1029D0000021782002F0DCF9DB220021782002F0CF
:1029E000D7F920220021782002F0D2F98D2200218F
:1029F000782002F0CDF914220021782002F0C8F9E5
:102A0000AF220021782002F0C3F92E220021782085
:102A100002F0BEF90020FFF749FF00F071F8054809
:102A200000210180418001214171084610BD000054
:102A30004C0700201C0000202DE9F0478146254866
:102A40000D46924601882A781144802905D2804695
:102A5000408869780844402802D30020BDE8F08708
:102A600000262AE0A9F1200101FB00606A68002429
:102A700032F810701DE000BF07FA04F0000409D519
:102A8000B8F80210B8F800003144204489B280B28E
:102A900052460BE0BAF1000F1AD00022B8F802102B
:102AA000B8F800003144204489B280B2FFF7DEFE5E
:102AB000641C2878A042DFD8761C6878B042D1D850
:102AC000B8F800102A7848461144A8F80010C5E765
:102AD0000122E3E71C00002070B515460E460446AF
:102AE00009E02A463146FFF7A7FF2178884201D046
:102AF000C8B270BD641C20780028F2D1C0B270BD8D
:102B000070B5104D002400BF04F1B000C2B2002126
:102B1000782002F03DF900221146782002F038F9C1
:102B200010220021782002F033F905EBC412802333
:102B30004021782002F03CF9641CE4B2082CE3D375
:102B400070BD00004B0300204FF480300860C011BE
:102B50001080002070470020704700207047002040
:102B60007047002070472DE9F04154024FF4007681
:102B700098460D46002707E02146284601F0CCFE86
:102B8000A419354407F101074745F5D30020BDE8F6
:102B9000F0812DE9F04154024FF4007698460D463D
:102BA000002707E02146284601F016FFA419354406
:102BB00007F101074745F5D30020BDE8F0817047D4
:102BC000FEF75CB8274810B5016821F0070141F015
:102BD00001010160016801F007010129FAD1224CCD
:102BE000206820F0F80040F080002060206840F06D
:102BF000010020602068C0F340000028FAD060681F
:102C000020F47C1040F420106060206840F0807058
:102C100020602068C0F340600028FAD0606820F08F
:102C2000F0006060606820F4E06040F48060606004
:102C3000606820F460506060606820F0030040F03D
:102C400002006060606800F00C000828FAD10748B4
:102C5000FEF78CFF0020FEF72BF8606840F4800040
:102C6000606010BD0020024000100240006CDC02D9
:102C70000D48016841F00101016041680B4A1140B3
:102C8000416001680A4A11400160016821F4802115
:102C90000160416821F4FE0141604FF41F01816031
:102CA0000449C00308607047001002400000FFF8AC
:102CB000FFFFF6FE08ED00E010B5D0F8B422526830
:102CC0009047002010BD90F89C22012A05D0022ACE
:102CD00003D0032A01D000F019B84988012904D192
:102CE0000021C0F8A41200F035B8704710B51346A3
:102CF0000A46002100F02AFB002010BD10B5134643
:102D00000A46002100F0C0FB002010BD10B50446AB
:102D10008021204600F09DFB2046BDE810400021A8
:102D200000F097BB10B50521C0F8941200231A4695
:102D3000194600F00BFB002010BD10B50223C0F8AF
:102D40009432C261026213460A46002100F09CFBE5
:102D5000002010BD10B50421C0F8941200231A46BB
:102D6000194600F091FB002010BD000010B50A4686
:102D7000024903A000F082F9004810BDC00F0020F6
:102D80004D534320436F6E66696700001220088030
:102D9000004870474400002010B50A46024903A0CD
:102DA00000F06CF9004810BDC00F00204D534320C7
:102DB000496E7465726661636500000004200880D6
:102DC000004870474000002010B50A46024903A0A1
:102DD00000F054F9004810BDC00F002053544D6955
:102DE00063726F656C656374726F6E696373000004
:102DF00010B50A46024903A000F040F9004810BD92
:102E0000C00F002053544D3332204D617373205353
:102E1000746F72616765000010B51A2008800A4857
:102E20000168001D0468001D0068081809D0082208
:102E30000649FEF7FBFD0549042210312046FEF746
:102E4000F5FD0248801E10BDE8F7FF1F5A00002064
:102E5000CA88012A01D0FFF759BF90F89C22012AA5
:102E600005D0022A03D0032A08D0FFF74FBF002164
:102E70008160012200F10801FFF75FBF0122011DFF
:102E8000FFF75BBF2DE9F84304460F460020009092
:102E9000002600257888010A082970D2DFE801F0B1
:102EA000AB040C22ABAB8B9AD4F8B012207C0A682E
:102EB000694690470646A3E0207C4FF0020840B1E7
:102EC000D4F8B402C16A68468847064686F801808D
:102ED00096E0D4F8B402816A68468847064686F8C8
:102EE00001808DE0C0B206285FD2DFE800F0031257
:102EF00021303F4FD4F8B002426822B1207C6946AD
:102F0000904706467CE039462046FFF7FFFE012544
:102F100076E0D4F8B002826822B1207C69469047FE
:102F200006466DE039462046FFF7F0FE012567E0D2
:102F3000D4F8B002C26822B1207C694690470646A8
:102F40005EE039462046FFF7E1FE012558E0D4F85F
:102F5000B002026922B1207C6946904706464FE0E4
:102F600039462046FFF7D2FE012549E0D4F8B002E9
:102F700042692AB1207C69469047064640E03AE023
:102F800039462046FFF7C2FE012539E0D4F8B002E9
:102F9000826922B1207C69469047064630E0394676
:102FA0002046FFF7B3FE01252AE039462046FFF709
:102FB000ADFE012524E0207C28B139462046FFF7EC
:102FC000A5FE01251CE0D4F8B402416B6846884791
:102FD000064615E0207C28B139462046FFF796FECC
:102FE00001250DE0D4F8B402016B68468847064617
:102FF0000721717004E039462046FFF787FE01255E
:10300000002D12D1BDF8000048B1FA883AB18242D1
:1030100000D90246009231462046FFF78EFEF8881E
:10302000002802D12046FFF795FEBDE8F883002175
:103030000278002A05D0491CC9B2401C0278002A37
:10304000F9D10846704790F89C22012A05D0022A3F
:1030500003D0032A01D0FFF759BECA88022A01D043
:10306000FFF754BE0121C160D0F8A41209B10321B9
:10307000C160022200F10C01FFF75FBE70B504468B
:103080000D461646002C1AD02046FFF7D0FF02212D
:1030900001EB4000308030782870032102206970F5
:1030A000217800290BD0002214F8013B411CC9B241
:1030B0002B54481CC0B26A5421780029F4D170BD49
:1030C00001004FF0000004D0012901D0022901D0F5
:1030D000022070470120704710B5002810D0D0F8AA
:1030E000B43213B10023C0F8B43209B1C0F8B01241
:1030F000012180F89C12027000F0D4F8002010BD6D
:10310000022010BD10B5D0F8C002FDF7A9FEBDE841
:103110001040FFF7D5BF10B5D0F8C002FDF77AFE1A
:10312000BDE81040FFF7CCBF70B5044694460029B7
:1031300009D0D4F8B40242691AB194F89C02032869
:1031400059D0022070BD04F11400D4F89412002567
:10315000022904D0042940D000293ED041E0C368B0
:1031600001698B420DD9591AC1608AB26146204665
:10317000FFF7C4FD00231A461946204600F0E6F882
:103180002FE08068B0FBF1F201FB12029AB988428D
:1031900011D3D4F8981288420DD20022114620464D
:1031A000FFF7ACFDC4F8985200231A461946204692
:1031B00000F0CCF815E0D4F8B402C16829B194F855
:1031C0009C02032801D1204688478021204600F038
:1031D00040F92046FFF7A6FD03E08021204600F0DD
:1031E00038F994F8A002012807D1204600F0B9FA76
:1031F00084F8A05201E020469047002070BD10B531
:10320000044608461146002809D0D4F8B4128A6949
:103210001AB194F89C12032931D0022010BD04F594
:10322000AA70D4F89432032B02D0052B1FD029E0CA
:10323000D0F810C0C36863450BD9A3EB0C03C3607F
:103240000069834200D303469AB22046FFF74EFD41
:1032500018E0D4F8B402016929B194F89C0203285B
:1032600001D1204688472046FFF774FD0AE0002080
:10327000C4F894020021204600F0EBF802E0014679
:1032800020469047002010BD10B5D0F8C002FEF7D0
:1032900020F8BDE81040FFF713BFD0F8C002FEF7DA
:1032A00032B8000010B519490446C1F8E802C0F868
:1032B000C01217480860082048600220886000207B
:1032C0008861C86108620846FEF76CF908B1FDF72D
:1032D00028F80022D4F8C0021823114604F53074EF
:1032E000FDF766FD5823002280212068FDF760FD70
:1032F0009823002281212068FDF75AFDD82300225F
:1033000001212068FDF754FD002010BDD40C0020E1
:10331000005C00400A0601F07F01D0F8C00201EB1A
:10332000810100EBC10002D590F82A00704790F8A7
:103330006A01704710B51C461346D0F8C0022246F9
:10334000FDF7EAFFBDE81040FFF7BABE10B5D0F8B0
:10335000C002FEF711F8BDE81040FFF7B1BE70B52E
:1033600004460022402311462046FFF7E3FF0125D3
:10337000C4F858514026C4F86461402300228021DB
:103380002046FFF7D7FFA561666284F89C520020B3
:10339000C4F894026060C4F8A402D4F8B80228B15A
:1033A000D4F8B4020021426820469047002070BD46
:1033B00090F89C12042903D190F89D1280F89C1279
:1033C0000020704710B590F89C12032904D1D0F862
:1033D000B412C96901B18847002010BD01740020F2
:1033E000704710B5D0F8C002FEF783F9BDE8104071
:1033F000FFF766BE10B5044604F52A7000F094F994
:103400000120C4F89402B4F8AE02C4F8980294F80B
:10341000A81211F01F000AD001280ED0022812D0E5
:1034200001F08001204600F014F8002010BD04F5E2
:103430002A71204600F043FAF7E704F52A71204686
:1034400000F075FBF1E704F52A71204600F077FAE9
:10345000EBE710B5D0F8C002FDF7A7FFBDE81040BC
:10346000FFF72EBE10B5D0F8C002FEF75DF9BDE83B
:103470001040FFF725BE90F89C1280F89D120421A1
:1034800080F89C120020704710B5D0F8C002FDF7FC
:10349000C5FFBDE81040FFF713BE10B5FEF700FCF6
:1034A000002010BD10B5FEF71CFC002010BD70B54B
:1034B000044601212046FFF72EFE0025C4F86C517A
:1034C00081212046FFF727FEE5622046FEF727FC14
:1034D000D4F8B80218B100F05FFBC4F8B85200206D
:1034E00070BD00000A2101800048704740010020A3
:1034F0002021018000487047000100202021018028
:1035000000487047E00000202021018000487047FB
:103510002001002070B504460125207C00281AD027
:103520004023022201212046FFF704FFC4F86C511A
:103530004023022281212046FFF7FCFEE5624FF482
:103540001B7000F02BFBC4F8B802B0B12046FEF7A8
:10355000EBFB002070BD4FF40073022201212046D6
:10356000FFF7E8FEC4F86C514FF40073022281218A
:103570002046FFF7DFFEE562E1E7022070BD00298B
:1035800001D0C0F8BC12002070472DE9F843054671
:103590000C46D5F8B8720026B046CDF800802078E9
:1035A00010F060013ED0202907D021462846FFF7C1
:1035B000ADFB02263046BDE8F8836178FE2907D0CE
:1035C000FF291ED021462846FFF7A0FB0226F1E77F
:1035D000618881B9E18801290DD110F0800F0AD0EE
:1035E000D5F8BC02806980473860012239462846F8
:1035F000FFF7A3FBDEE721462846FFF787FB0226FD
:10360000D8E7618821B9E18811B910F0800F05D0A1
:1036100021462846FFF77AFB0226CBE72846FEF72D
:10362000A4FBC7E7607858B1012836D00A2817D024
:103630000B2825D021462846FFF768FB0226B9E76C
:1036400095F89C02032805D021462846FFF75EFB2B
:103650000226AFE7022269462846FFF76EFBA9E77C
:1036600095F89C02032805D021462846FFF74EFB1B
:1036700002269FE70122391D2846FFF75EFB99E7E6
:1036800095F89C02032805D021462846FFF73EFB0B
:1036900002268FE7A07878608CE721792846FFF72B
:1036A000F3FD21792846FFF736FDA0884FF001078A
:1036B00010F0800F19D000F00F0000EB800005EB38
:1036C0008000C0F81880287C38B140230222812174
:1036D0002846FFF72FFEEF6219E04FF40073022235
:1036E00081212846FFF726FEF5E700F00F0000EBEA
:1036F000800005EB8000C0F85881287C60B1402331
:10370000022201212846FFF715FEC5F86C712179C8
:103710002846FEF7AFFA4DE74FF40073022201216D
:103720002846FFF707FEF0E70A7802704A784270F1
:103730008A78CB7802EB032242800A794B7902EB3C
:10374000032282808A79C97902EB0121C180704706
:1037500002460020002902D0C2F8B41270470220AD
:1037600070470020704770B504468888002821D132
:10377000C888F8B9488880281CD200F07F0594F8E2
:103780009C0203280DD084F89E5229462046FFF75C
:1037900028FE2046FFF7DEFA45B1022084F89C029D
:1037A00070BD2046BDE87040FFF7B0BA012084F834
:1037B0009C0270BD2046BDE87040FFF7A7BA10B567
:1037C0000224D0F8B422002A03D01268904700B92E
:1037D0000024204610BD000070B504460D46304E52
:1037E000A9783170012905D929462046BDE87040E5
:1037F000FFF78CBA94F89C0202280BD0032823D040
:1038000029462046FFF782FA31782046BDE870400D
:10381000FFF752BA99B16160032084F89C022046F8
:10382000FFF7CDFF022804D02046BDE87040FFF727
:1038300091BA29462046BDE87040FFF767BA204696
:10384000BDE87040FFF786BA91B16068884221D028
:10385000C1B22046FFF730FA317861602046FFF7A9
:10386000AEFF022810D02046BDE87040FFF772BAC4
:10387000022084F89C0261602046FFF71DFA204672
:10388000BDE87040FFF766BA29462046BDE87040A3
:10389000FFF73CBA2046BDE87040FFF75BBA000076
:1038A000A40000204988012903D1C0F8A412FFF721
:1038B00051BA704710B5FFF7D5FD002010BD10B507
:1038C00003460024087810F060020ED0202A06D0AB
:1038D000402A04D01846FFF719FA204610BDD3F845
:1038E000B402826818469047F7E748780A2822D23F
:1038F000DFE800F0151D211921090521110D1846D9
:10390000FFF7C0FAE9E71846FFF72DFFE5E718468D
:10391000FFF762FFE1E71846FFF79AFADDE718467E
:10392000FFF791FBD9E71846FFF7BCFFD5E718462C
:10393000FFF7C9F9D1E71846FFF7E8F9CDE72DE918
:10394000F0410446084600260179037813F060022E
:1039500011D0202A08D0402A06D001462046FFF781
:10396000D5F93046BDE8F081D4F8B4128A68014632
:1039700020469047F5E703F06002202A0BD04278FA
:10398000002A61D0012A37D0032A0CD001462046F4
:10399000FFF7BCF9E5E7D4F8B4128A68014620467F
:1039A000BDE8F041104794F89C22022A06D0032A71
:1039B00014D001462046FFF7A9F9D2E749B1802982
:1039C00007D02046FFF745FD80212046FFF741FD47
:1039D000C7E701462046FFF799F9C2E742883AB99E
:1039E00031B1802904D0C08810B92046FFF731FDDD
:1039F0002046FFF7AFF9B4E794F89C22022A06D0DC
:103A0000032A14D001462046FFF780F9A9E749B1FF
:103A1000802907D02046FFF71CFD80212046FFF7B4
:103A200018FD9EE701462046FFF770F999E74088A8
:103A3000002896D111F07F0F02D02046FFF762FBDD
:103A40002046FFF787F98CE794F89C220027022A8A
:103A500006D0032A26D001462046FFF757F980E713
:103A600031B1802904D001462046FFF74FF978E7AD
:103A700011F0800F08D001F07F0000EB800004EB14
:103A8000800000F1140107E001F07F0000EB8000EE
:103A900004EB800000F5AA710F6002222046FFF7B8
:103AA0004CF95EE711F0800F0CD001F00F0202EB31
:103AB000820204EB820292696AB901462046FFF74E
:103AC00025F94EE701F00F0202EB820204EB8202BD
:103AD000D2F858215AB111F0800F0DD001F07F00BB
:103AE00000EB800004EB800000F114050CE00146BF
:103AF0002046FFF70BF934E701F07F0000EB800070
:103B000004EB800000F5AA7541B1802906D020465B
:103B1000FFF700FC20B10120286002E02F6000E0E8
:103B20002F60022229462046FFF707F919E770B5F2
:103B300005460C46207810F0600209D0202A07D0F4
:103B4000402A05D021462846FFF7E0F8002070BD46
:103B500095F89C22012A08D0022A06D0032A04D014
:103B600021462846FFF7D2F8F0E7207901280ED841
:103B7000D5F8B4022146826828469047E18800299A
:103B8000E4D10028E2D12846FFF7E4F8DEE7214639
:103B90002846FFF7BBF8D9E7704700000048704798
:103BA000640A00202DE9F0470C78002630F8243014
:103BB00048F68F121340CA78002A7DD0012A7CD0A3
:103BC000022A02D0032A7FD0012648F28002134342
:103BD00020F824300D7830F8254048F68F731C40CB
:103BE0002C43144320F825400D7B48F2C00C48F6C6
:103BF000BF744CF280074BF68F79EDB391F80080DB
:103C0000C24630F8285048F280181D4045EA0805A1
:103C100020F82A50B0F8505091F80080054405EB88
:103C20000815B1F8088028F00108A5F80084B0F85C
:103C3000505091F80080054405EB0815B1F80A8052
:103C400028F00108A5F808844D78002D0D7830F88B
:103C500025804FEA48487DD0B8F1000F07DA30F8E8
:103C6000258008EA030848EA070820F825800F782D
:103C700030F827506D0600E02CE006D530F82750CC
:103C80001D4045EA0C0520F82750CB780D78012B14
:103C900030F8253003EA040301D083F020031343F6
:103CA00020F825300B7830F8231001EA0901114380
:103CB00020F82310304602E003E008E004E0BDE80D
:103CC000F08743F4007380E743F4C0637DE743F477
:103CD00080637AE74D782DB3B0F850500F780544E3
:103CE00005EB0715CF8827F00107A5F800740F78BA
:103CF00030F827506D0606D530F827501D4045EAAC
:103D00000C0520F82750CB78012B06D00B7830F823
:103D10002310214081F02001C9E70B7830F82310EF
:103D20002140C4E7B0F850400D78044404EB05147A
:103D3000CD8825F00105A4F80854B0F850400D785E
:103D4000044404EB05140D6904F20C4475B13E2DD6
:103D500014D800E030E04FEA550CED0701D00CF12B
:103D6000010C4FF6FF7505EA8C2511E0258825F436
:103D7000F8452580258845F4004509E04FEA551CA3
:103D8000ED0601D1ACF1010C4FF4004545EA8C255C
:103D900025800D7830F82540640405D530F825409D
:103DA0001C403C4320F825400B7830F8231001EAF2
:103DB000090181F440517AE7B8F1000F07DA30F8D1
:103DC000258008EA030848EA070820F825800F78CC
:103DD00030F827506D0606D530F827501D4045EACB
:103DE0000C0520F827500D7830F8253003EA090338
:103DF00083F44053134320F825308EE700207047AA
:103E00002DE9F04391F80C804F780A7848F6BF7C92
:103E10004BF68F7948F2800348F2C0054CF28006D9
:103E200048F68F74B8F1000F28D0002F30F82270B8
:103E30004FEA474748D0002F05DA30F82270274074
:103E4000374320F822700A7830F822707F0605D5B3
:103E500030F8227027402F4320F822700D7830F878
:103E600025202240324320F825200C7830F82420E9
:103E700002EA0C021A4320F824201AE07FB130F83D
:103E80002260760605D530F8226026402E4320F8C1
:103E900022600A7830F8221001EA0C010EE030F8B6
:103EA00022506D0405D530F822502540354320F8C6
:103EB00022500A7830F8221001EA0901194320F84B
:103EC00022100020BDE8F083002F05DA30F82270C0
:103ED0002740374320F822700A7830F822607606AF
:103EE00005D530F8226026402E4320F822600E7857
:103EF00030F8262022402A4320F826200C7830F87B
:103F0000242002EA09021A4320F82420C1E70020F5
:103F1000704700207047012120F8401F00210180D8
:103F2000818001820846704730F8401F21F43F41EC
:103F30000180002070470020704730B50A7BB2BB7B
:103F40004A7848F68F7548F28004C2B10B7830F891
:103F50002320520607D530F823202A4048F2C00516
:103F60002A4320F82320CA78012A20D00A7830F882
:103F7000221048F6BF73194081F0200114E00A783E
:103F800030F822305B0407D530F822302B404CF259
:103F900080052B4320F822300A7830F822104BF6A7
:103FA0008F73194081F44051214320F822100020E2
:103FB00030BD10B54A780978002A48F2800330F8FD
:103FC000212005D048F6BF74224082F0100204E0A0
:103FD0004BF68F74224082F480521A4320F821203D
:103FE000002010BD2DE9F0470E464B78097B0446B2
:103FF0004FF0000948F68F7248F2800A4FF6FF77BB
:104000004FF40048012B09D000296ED0F078022827
:104010006CD001286BD00120BDE8F087B56930690C
:10402000854200D90546C9B1F17848F280130229CA
:1040300023D0317834F821001040184324F82100AF
:10404000306A401B3062307834F8201049067178AD
:104050007ED500297DD001297CD03FE1ABB2F2882A
:104060002046716900F0FAFAB4F850003178204423
:1040700000EB0110A0F80454EAE0316A81426AD9E9
:10408000317834F821001040184324F82100306AB8
:10409000401B3062307834F82010490671786CD5B6
:1040A00011B1012924D02AE0B4F85010214401EBC9
:1040B000001000F20C404DB13E2D0FD86908EA0700
:1040C00000D0491C07EA8121018018E0018821F411
:1040D000F8410180018841F40041F5E76909EA06E9
:1040E00000D1491E48EA8121EEE79CE1BCE126E2CD
:1040F000B4F85020111901EB0010A0F80C5472898B
:10410000ABB22046716900F0A9FA70692844706169
:104110003169306A884202D9401B306202E00546AC
:10412000C6F82090707800287CD1B4F8500031781F
:10413000204400EB011000F204406DB13E2D13D875
:104140006908EA0700D0491C07EA8121018012E0D2
:1041500001E19BE0BBE084E0018821F4F8410180AB
:10416000018841F40041F1E76909EA0600D1491EDE
:1041700048EA8121EAE7328965E011B1012921D0BD
:1041800027E0B4F85010214401EB001000F2044085
:104190004DB13E2D0FD86908EA0700D0491C07EA47
:1041A0008121018015E0018821F4F8410180018816
:1041B00041F40041F5E76909EA0600D1491E48EAE1
:1041C0008121EEE7B4F85010214401EB0010A0F873
:1041D00004543289ABB22046716900F03FFA70692D
:1041E000284470613169306A884202D9401B3062CC
:1041F00002E00546C6F82090707800287ED1B4F819
:1042000050003178204400EB011000F20C4055B111
:104210003E2D10D86908EA0700D0491C07EA812121
:1042200001800FE072E0018821F4F84101800188EB
:1042300041F40041F4E76909EA0600D1491E48EA61
:104240008121EDE77289ABB22046716900F006FA70
:10425000317834F8210048F6BF72104080F0300009
:10426000C0E1327834F8220048F68F63184040EA03
:104270000A0024F82200B4F850003278204400EB01
:1042800002108BB2A0F804343289DDE7B4F8501084
:10429000214401EB001000F20C404DB13E2D0FD82F
:1042A0006908EA0700D0491C07EA8121018015E06E
:1042B000018821F4F8410180018841F40041F5E7CB
:1042C0006909EA0600D1491E48EA8121EEE7B4F8FF
:1042D0005020111901EB0010A0F80C547289ABB2F8
:1042E0002046716900F0BAF970692844706131693B
:1042F000306A884203D9401B306203E06EE0054615
:10430000C6F82090002DA3D0707858B101287FF412
:104310001EAFB4F850003178204400EB0110A0F833
:10432000045428E7B4F850003178204400EB011120
:1043300001F204413E2D06D86808EA0700D0401C6F
:1043400007EA802005E06809EA0600D1401E48EA35
:10435000802008800FE711B1012921D027E0B4F8AF
:104360005010214401EB001000F204404DB13E2DED
:104370000FD86908EA0700D0491C07EA81210180AB
:1043800015E0018821F4F8410180018841F40041E1
:10439000F5E76909EA0600D1491E48EA8121EEE7FE
:1043A000B4F85010214401EB0010A0F804543289F5
:1043B000ABB22046716900F051F970692844706110
:1043C0003169306A884202D9401B306202E00546FA
:1043D000C6F82090002D96D0707858B101287FF44F
:1043E00020AFB4F850100819317800EB0110A0F894
:1043F0000C5427E7B4F850003178204400EB011149
:1044000001F20C413E2D06D86808EA0700D0401C96
:1044100007EA802005E06809EA0600D1401E48EA64
:10442000802008800EE7B1693069814202D9091AFB
:10443000B161B5E00846C6F81890B1E0088820F4EC
:10444000F8400880088840F400400BE03E2875D80A
:104450004208C00700D0521C07EA822002E000BFD9
:1044600048EA82200880B5E093B9B4F8500031786A
:10447000204400EB0110316900F2044069B13E298B
:1044800013D84B08C90700D05B1C07EA83210180C1
:10449000707888B1012832D03AE0018821F4F841DF
:1044A0000180018841F40041F1E74B09C90600D1C0
:1044B0005B1E48EA8321EAE7B4F8500031782044D3
:1044C00000EB0110316900F20C4049B13E290FD8D0
:1044D0004B08C90700D05B1C07EA8321018017E065
:1044E000018821F4F8410180018841F40041F5E799
:1044F0004B09C90600D15B1E48EA8321EEE7B4F8F8
:1045000050100819317800EB0110318AA0F80C1412
:10451000F069A8B3317834F82100430401D543068B
:1045200003D444F24003184254D134F8210010401F
:1045300048F2C002104324F821004BE03CE0B1698E
:104540003069814202D9091AB16102E00846C6F811
:1045500018908BB9B4F850103278214401EB021155
:1045600001F2044168B13E2813D84208C30700D0C5
:10457000521C07EA82220A80717889B1012921D070
:1045800028E00A8822F4F8420A800A8842F40042AD
:10459000F1E74209C30600D1521E48EA8222EAE747
:1045A000B4F850103278214401EB021101F20C41B1
:1045B00000287FF44BAF41E74209C0067FF450AFBB
:1045C000521E4DE7B4F850201119327801EB021158
:1045D000A1F80C04317834F821004BF68F721040AA
:1045E00080F4405040EA0A0024F82100002013E53E
:1045F0000021A0F844104FF43F41A0F840100020E3
:104600007047002070470020704700000148FCF709
:104610001FBF0000D40C0020B0F844007047000019
:1046200010B500EB42005C0800F5806009D000BFC7
:1046300030F8042B01F8012B120A01F8012B641E3B
:10464000F6D1DA0701D00088087010BD002070474D
:1046500011B98021A0F84C100020704710B55B1CE8
:1046600000EB42005B0800F5806009D011F8012BD7
:1046700011F8014B42EA042220F8042B5B1EF5D10D
:1046800010BDFEE70907090E002804DB00F1E02059
:1046900080F80014704700F00F0000F1E02080F86F
:1046A000141D704702E008C8121F08C1002AFAD181
:1046B00070477047002001E001C1121F002AFBD1A2
:1046C0007047000070B504464FF40071FBF755FDCC
:1046D00018A0202301682160416861600089208161
:1046E000A3720820E072002121736173E18145F219
:1046F0009C0222826282A182E18222836183E16143
:1047000004F120000EA425680560656845602489D1
:1047100004814E248472C372182303734173C181D0
:10472000028242828182C182028305214183D902B1
:10473000C16170BD424F4F544C4F4144455220001F
:104740004649524D5741524542494E0010B51B4A09
:104750001A4C0A44920864426FF07043A14210D18F
:10476000D91F01604FF0FF31C0E90113C36005217B
:10477000036153185B1C40F82130491C8029F8D391
:1047800010BD0F4CA1424FF000010FD15418641C12
:1047900040F82140491C0429F8D305210022036177
:1047A00040F82120491C8029FAD310BD53185B1C06
:1047B00040F82130491C8029F8D310BD0008DDFFE6
:1047C000001823002DE9F04F87B014460D46064629
:1047D0000127FBF70BFF00F07FF950B1102C03D03D
:1047E000002007B0BDE8F08F32462146284600F091
:1047F0007FF83D48002186420CD1029005914FF090
:1048000030000091039005A96846FBF751FE10B1F6
:10481000002764E063D3354906EB040088425ED884
:1048200016F003024FF0FF0A0DF1080B3CD0C2F165
:10483000040126F00309A14200DD21468DF808A0FD
:104840008DF809A08DF80AA08DF80BA000205B461A
:104850000BE000BF00EB0208641E401C15F801CB02
:1048600003F808C0E4B2C0B2761C8842F2D3002339
:1048700049460220029AFBF779FE15E028788DF868
:10488000080068788DF80900A8788DF80A00E878A3
:104890008DF80B00002331460220029AFBF766FEDA
:1048A000241F2D1DE4B2361D042CE7D2BCB18DF8B7
:1048B00008A08DF809A08DF80AA08DF80BA00020A3
:1048C000594604E015F8012B0A54401CC0B2A0421E
:1048D000F8D3002331460220029AFBF747FEFBF78C
:1048E0003BFE38467DE7000000400008000001085C
:1048F0007FB50C4605461146684600F097F86946B4
:104900000448FBF7A6FC224629460248FBF77DFC3B
:104910007FBD00004B02002070B5CA0501D0002009
:1049200070BD5524AA25E1B1B1F5406F19D04FF4FF
:10493000007291421FD0B1F5606F1CD0B1F5806F4D
:104940002AD0B1F5805F27D01D4BCC184FF4085307
:104950009C4203D31B4C0C449C4226D2FFF7F6FE2C
:1049600029E006465A221849FBF7EEFB4FF4D271B4
:1049700006F15A0012E006461146FBF7FEFB13480B
:1049800030601348C6F8E4011248C6F8E80140F662
:104990000500C6F8EC0103E006461146FBF7EDFB07
:1049A00086F8FE4186F8FF5105E0B1F5800F04D08E
:1049B0001146FBF7E2FB012070BDFFF783FEFAE72B
:1049C0000008DDFF0084CEFFE84D0008525261412F
:1049D00072724161BE98030070B50546C80501D0EA
:1049E000002070BD4FF4800081421AD346138142EB
:1049F00010D100242A19107A482807D1507A452866
:104A000004D1907A582801D100F03EF92034B44204
:104A1000F0D306E0044800F043F93146284600F0A0
:104A200061F8012070BD0000C54700082DE9FF4175
:104A30000A46284E04460021D5B2C2F3072CC2F321
:104A40000747705C73186840605493F801E0601881
:104A50008EEA0C0E80F801E093F802E0091D8EEA60
:104A6000070E80F802E0DB78C9B283EA1263C370F4
:104A70001029E6D3102221466846FBF765FB632028
:104A8000DDE90021029B029DDB0882EA910183EAB5
:104A9000D5135940039B520881EA5311019B42EA06
:104AA000C37200925A0842EAC5720192039B6A08D7
:104AB00042EAC37202925A0842EAC171401E03914F
:104AC000C0B2DDD2102269462046FBF73DFBBDE8AF
:104AD000FF810000424E00080148807870470000C6
:104AE000000000202DE9F84F00240F4680464FF0CB
:104AF0000A0BDFF88C914FF0010A2646614DB9E0B0
:104B000018F80400002876D0297959B14A1E0A2ADB
:104B100023D8A0F13002092A0CD9113A052A04D869
:104B20000A3207E02E726E7017E0A0F16102192AB6
:104B30006BD80A32D2B20092782A66D06A78009B8B
:104B4000AAB195F807C043EA0C1395F808C063446E
:104B500085F8083082F001026A700C2955D2DFE82E
:104B600001F00819191F1F1F1F272B364B4DEB7122
:104B7000F0E70D287DD00A287BD03A2845D16E7108
:104B8000AE716E81FF213E48FBF7F7FAEE8185F8A2
:104B900004A06EE06A79009840EA0210687104E0AF
:104BA0006A89009840EA02106881491C297160E016
:104BB000009850BB082008E00098052801D90E286D
:104BC00023D1A871687998B10920287151E0E98949
:104BD000009BC1F34700491C19F800C043EA0C13BD
:104BE00009F8003088B2E8816979B1EB500F40D8FC
:104BF00085F804B03DE040E00B20E6E7E9896879FC
:104C0000B1EB400F01D1287A10B10020BDE8F88F38
:104C1000A879022807D004280CD088B10E2822D009
:104C2000012823D024E0B9F8000040BAA88185F813
:104C300000A01DE0B9F8000040BAA8812E7017E06E
:104C40002B69ABB12878AA890028688902D000EBCB
:104C5000021001E040EA0240C1F3470208499847C8
:104C60000028D3D004E085F802A001E085F803A075
:104C70002E71641CBC42FFF443AF0120C6E7000064
:104C80004C010020000000200448002101714181F6
:104C9000818101708170C1707047000000000020A8
:104CA00001490861704700000000002070B5064C03
:104CB0006568FBF7EDFB206880F308880348046013
:104CC000AC46BDE8704060470040000808ED00E0D9
:104CD00086B0FBF7DBFFFDF775FF14216846FBF795
:104CE0004CFA0420FCF7BEFE0820FCF7BBFE40F2A5
:104CF0000110009008200190012004906946174897
:104D0000FCF7BCFEFDF77AF8164815494FF48042CF
:104D100001601549416000218160C0E903124161D1
:104D20008161C1610162FBF76BFDFDF7D1FD0021DF
:104D30000846FDF7C7FD01220C490DA0FDF7CCFE8A
:104D40001E210A20FDF7BEFD012208490AA0FDF739
:104D5000C3FEFDF7D5FEFFF7A9FFFEE700080140FF
:104D6000005400404C070020801A06001400002068
:104D700048454C4C4F00000020205A494E203A290B
:104D8000000000000148401EFDD1704790D0030094
:104D90001CB502238DF804100A2100918DF805201E
:104DA000014601AA0148FBF7A5FE1CBD4C070020E7
:104DB00070B5C2B000248DF8041001A904E0155D9F
:104DC0000E19641C7570E4B29C42F8D30A2100915C
:104DD0005B1C01469BB201AA0248FBF78BFE42B066
:104DE00070BD00004C070020EBFE904D53444F5324
:104DF000352E300002017C110200000000F8000096
:104E00003F00FF003F000000C1C003004207000058
:104E10000000000002000000010006000000000089
:104E20000000000000000000800029B04990024E00
:104E30004F204E414D452020202046415433322002
:104E40002020845EF4233683408E832274CFF1F0D9
:104E500007CC2976DEF02AF44ED7BE871EA9DAB237
:104E60005B243ACA6638A7F64445B12C5E86CB73FC
:104E7000BA2F637C777BF26B6FC53001672BFED74F
:104E8000AB76CA82C97DFA5947F0ADD4A2AF9CA4D3
:104E900072C0B7FD9326363FF7CC34A5E5F171D843
:104EA000311504C723C31896059A071280E2EB2731
:104EB000B27509832C1A1B6E5AA0523BD6B329E354
:104EC0002F8453D100ED20FCB15B6ACBBE394A4C34
:104ED00058CFD0EFAAFB434D338545F9027F503CB4
:104EE0009FA851A3408F929D38F5BCB6DA2110FFE0
:104EF000F3D2CD0C13EC5F974417C4A77E3D645DDD
:104F0000197360814FDC222A908846EEB814DE5E69
:104F10000BDBE0323A0A4906245CC2D3AC629195BD
:104F2000E479E7C8376D8DD54EA96C56F4EA657AF9
:104F3000AE08BA78252E1CA6B4C6E8DD741F4BBD9A
:104F40008B8A703EB5664803F60E613557B986C147
:104F50001D9EE1F8981169D98E949B1E87E9CE5564
:104F600028DF8CA1890DBFE6426841992D0FB0540E
:104F7000BB168D01020408102040801B3600000083
:104F80000000000000000000000000000000000021
:104F90000000000000000000000000000000000011
:104FA00000000000000C000C000C000C000C000CB9
:104FB000000C000C000C000C000C0000000C000C9D
:104FC0000000000000000000001B001B001B001B75
:104FD000001B0000000000000000000000000000B6
:104FE000000000000000000000000000801980198F
:104FF00080198019C07FC07F80190033C07FC07FB7
:1050000000330033003300330000000000000000D4
:10501000001E003F807580650074003C001E000784
:105020008005806580658075003F001E00040004D7
:1050300000000000007000D840D8C0D880D90073AC
:105040000006000C801BC036C066C046C006800348
:105050000000000000000000001E003F003300338D
:105060000033001E000CC03CC0668063806180631A
:10507000C03E801C0000000000000000000C000C7E
:10508000000C000C000C00000000000000000000FC
:105090000000000000000000000000000000800090
:1050A00000010003000600060004000C000C000CC8
:1050B000000C000C000C00040006000600030001B8
:1050C0008000002000100018000C000C00040006F6
:1050D000000600060006000600060004000C000C96
:1050E0000018001000200000000C002D003F001EE2
:1050F000003300000000000000000000000000007D
:10510000000000000000000000000000000000009F
:10511000000C000C000C000CC0FFC0FF000C000CC9
:10512000000C000C00000000000000000000000067
:10513000000000000000000000000000000000006F
:105140000000000000000000000C000C000400043F
:105150000008000000000000000000000000000047
:1051600000000000001E001E000000000000000003
:10517000000000000000000000000000000000002F
:10518000000000000000000000000000000000001F
:10519000000C000C000000000000000000030003F1
:1051A00000030006000600060006000C000C000CC0
:1051B000000C00180018001800000000000000009B
:1051C000001E003F0033806180618061806D806DD2
:1051D0008061806180610033003F001E000000009C
:1051E000000000000006000E001E0036002600062B
:1051F000000600060006000600060006000600067F
:105200000000000000000000001E003F807380616D
:105210008061800100030006000C0018003000606F
:10522000807F807F0000000000000000001C003E26
:10523000006300630003000E000E00038001800184
:1052400080618073003F001E00000000000000002D
:105250000006000E000E001E001E0016003600366E
:105260000066807F807F00060006000600000000C8
:1052700000000000007F007F006000600060006EA2
:10528000007F80638001800180618073003F001E89
:105290000000000000000000001E003F803380611D
:1052A0000060006E007F8073806180618061803368
:1052B000003F001E0000000000000000807F807F93
:1052C00080010003000300060006000C000C000C27
:1052D000000800180018001800000000000000007E
:1052E000001E003F8063806180610021001E003F3E
:1052F0008061806180618061003F001E00000000CD
:1053000000000000001E003F00738061806180612A
:105310008073803F801D800180610073003F001E0C
:10532000000000000000000000000000000000007D
:10533000000C000C00000000000000000000000055
:10534000000C000C00000000000000000000000045
:10535000000000000000000C000C00000000000035
:1053600000000000000C000C000400040008000015
:1053700000000000000080008003000E0038006084
:105380000038000E800380000000000000000000D4
:10539000000000000000000000000000807F807F0F
:1053A00000000000807F807F0000000000000000FF
:1053B00000000000000000000000000000000040AD
:1053C0000070001C000780010007001C00700040F6
:1053D000000000000000000000000000001F803FEF
:1053E000C071C060C000C00180030007000E000C47
:1053F000000C0000000C000C000000000000000089
:10540000001E003F803180718063806F806D806DF1
:10541000806F806700600032003E001C00000000CA
:1054200000000000000E000E001B001B001B001BF4
:1054300080318031803F803F8031C060C060C0607B
:105440000000000000000000007C007E006300639C
:1054500000630063007E007E006380618061806382
:10546000007F007E0000000000000000001E003FE2
:10547000803180610060006000600060006000605A
:1054800080618031003F001E00000000000000002D
:10549000007C007F00638063806180618061806147
:1054A0008061806100630063007E007C000000007A
:1054B00000000000807F807F00600060006000606E
:1054C000007F007F0060006000600060807F807F60
:1054D0000000000000000000807F807F006000600E
:1054E00000600060007F007F00600060006000607E
:1054F000006000600000000000000000001E003F8F
:105500008031806100600060006080638063806142
:1055100080618031803F001E00000000000000001C
:10552000806180618061806180618061807F807F37
:105530008061806180618061806180610000000025
:1055400000000000003F003F000C000C000C000CAD
:10555000000C000C000C000C000C000C003F003F85
:105560000000000000000000800180018001800137
:1055700080018001800180018001806180618073F1
:10558000003F001E0000000000000000C0608061BD
:10559000006300660066006C0078007C00660066B0
:1055A000006380618061C0600000000000000000B6
:1055B00000600060006000600060006000600060EB
:1055C0000060006000600060807F807F000000005D
:1055D00000000000C071C071C07BC07AC06AC06AA0
:1055E000C06EC064C060C060C060C060C060C060A9
:1055F00000000000000000008071807180798079D7
:105600008079806D806D806D806580678067806740
:10561000806380630000000000000000001E003F67
:105620000033806180618061806180618061806120
:1056300080610033003F001E0000000000000000F9
:10564000007E007F80638061806180618063007F75
:10565000007E0060006000600060006000000000EC
:1056600000000000001E003F003380618061806107
:10567000806180618061806580670033803F401E6B
:105680000000000000000000007E007F8063806159
:1056900080618063007F007E00660063006380613C
:1056A0008061C0600000000000000000000E001FCC
:1056B0008031803100300038001E00078003806197
:1056C00080618031003F001E0000000000000000EB
:1056D000C0FFC0FF000C000C000C000C000C000C04
:1056E000000C000C000C000C000C000C0000000072
:1056F0000000000080618061806180618061806164
:10570000806180618061806180618073003F001EE4
:105710000000000000000000C060C060C060803178
:1057200080318031001B001B001B001B000E000E8F
:10573000000E00040000000000000000C0C0C0C057
:10574000C0C0C0C0C0C0C0CC804C804C805E805205
:1057500080528073806180610000000000000000C2
:10576000C0C0806080610033003B001E000C000C54
:10577000001E001F003B80718061C0C0000000005F
:1057800000000000C0C08061806100330033001E53
:10579000001E000C000C000C000C000C000C000C97
:1057A0000000000000000000803F803F80010003F7
:1057B00000030006000C000C001800180030006008
:1057C000807F807F000000000000000F000F000CB1
:1057D000000C000C000C000C000C000C000C000C69
:1057E000000C000C000C000C000C000F000F00005F
:1057F000001800180018000C000C000C000C00062B
:10580000000600060006000300030003000000007D
:105810000000001E001E000600060006000600062E
:105820000006000600060006000600060006000648
:105830000006001E001E0000000C000C001E0012DE
:105840000033003380618061000000000000000030
:105850000000000000000000000000000000000048
:105860000000000000000000000000000000000038
:1058700000000000000000000000E0FF0000000049
:1058800000380018000C00000000000000000000BC
:105890000000000000000000000000000000000008
:1058A000000000000000000000000000001F803F1A
:1058B00080618001801F803F80618063807FC0386D
:1058C0000000000000000000006000600060006058
:1058D000006E007F80738061806180618061807371
:1058E000007F006E000000000000000000000000CB
:1058F00000000000001E003F8073806100600060B7
:1059000080618073003F001E000000000000000066
:105910008001800180018001801D803F8073806153
:105920008061806180618073803F801D0000000085
:10593000000000000000000000000000001E003F0A
:1059400000738061807F807F00608071003F001E57
:105950000000000000000000C007C00F000C000C99
:10596000807F807F000C000C000C000C000C000CF1
:10597000000C000C0000000000000000000000000F
:105980000000801D803F8073806180618061806144
:105990008073803F801D80018063007F003E000097
:1059A0000060006000600060006F807F8071806137
:1059B00080618061806180618061806100000000A1
:1059C000000000000006000600000000003E003E4F
:1059D0000006000600060006000600060006000697
:1059E0000000000000000006000600000000003E6D
:1059F000003E00060006000600060006000600063F
:105A0000000600060046007E003C000000600060CA
:105A100000600060806100630066006C007C0076BE
:105A2000006300638061C0600000000000000000AF
:105A3000003E003E000600060006000600060006C6
:105A40000006000600060006000600060000000032
:105A500000000000000000000000000080DDC0FF2A
:105A6000C0CEC0CCC0CCC0CCC0CCC0CCC0CCC0CCD4
:105A70000000000000000000000000000000000026
:105A8000006F807F80718061806180618061806152
:105A90008061806100000000000000000000000044
:105AA00000000000001E003F807380618061806103
:105AB00080618073003F001E0000000000000000B5
:105AC000000000000000006E007F80738061806134
:105AD000806180618073007F006E00600060006004
