:020000040800F2
:104000000050002051410008919900089399000840
:1040100095990008979900089999000800000000F8
:1040200000000000000000000000000041A30008A4
:104030009B9900080000000071A300089D990008EA
:1040400099410008994100089941000899410008E8
:1040500099410008994100089941000899410008D8
:10406000994100089941000899410008D199000838
:1040700099410008994100089941000899410008B8
:1040800049A2000855A20008DD99000899410008DE
:1040900099410008994100089941000861A200086F
:1040A000994100088D9B000899410008994100083A
:1040B000A59B0008999B000899410008B19B000846
:1040C0007DA0000899410008994100089941000825
:1040D0009941000899410008994100089941000858
:1040E000994100089941000899410008000000002A
:1040F00000000000000000000000000000000000C0
:0C41000000000000000000005FF8E0F18B
:1041100010B5054C237833B9044B13B10448AFF301
:1041200000800123237010BD60000020000000000B
:1041300078B0000808B5034B1BB103490348AFF33F
:10414000008008BD000000006400002078B0000876
:10415000002103E00B4B5B58435004310A480B4BE2
:1041600042189A42F6D30A4A02E00023136004324E
:10417000084B9A42F9D306F01DF906F029FF06F024
:104180009FF9FEE75CDE00080000002060000020D0
:10419000600000208C1B0020FEE70000064800683D
:1041A000006880F3088862B661B6BFF34F8FBFF333
:1041B0006F8F00DF00BF000008ED00E04FF05003FC
:1041C00083F31188BFF36F8FBFF34F8FFEE70000BB
:1041D000002307B501930A4B1B68013301D0FFF799
:1041E000EDFF4FF0500383F31188BFF36F8FBFF3E0
:1041F0004F8F019B002BFCD003B05DF804FB00BF88
:104200005800002008B5EFF305830F2B07D90E4A9D
:104210009B5C0E4A12789A4201D9FFF7CFFF4FF00C
:10422000E0230B4AD3F80C3D126803F4E063934299
:1042300008D94FF0500383F31188BFF36F8FBFF39A
:104240004F8FFEE708BD00BFF0E300E0B616002088
:10425000B8160020054A08B513680BB9FFF7AEFF82
:10426000013B13600BB983F3118808BD580000208F
:1042700008B54FF0500383F31188BFF36F8FBFF37E
:104280004F8F074A13680133012B136007D14FF09A
:10429000E023D3F8043DDBB20BB1FFF78FFF08BD7D
:1042A0005800002008B590F82130022B03D00423D9
:1042B0008363012008BD03681A6822F00E021A60A9
:1042C0001A6822F001021A60174A93421CD0143275
:1042D00093421BD0143293421AD0143293421AD014
:1042E000143293421AD0143293420CBF4FF480130D
:1042F0004FF080730D4A53604FF480730384436B17
:104300007BB198470020D5E70123F3E71023F1E7BD
:104310004FF48073EEE74FF48053EBE74FF48033B4
:10432000E8E71846C6E700BF080002400000024068
:1043300070B40425C66B026C34680368954025424E
:10434000196832D04D0730D51A6896065EBF1A68D4
:1043500022F004021A603D4A934219D0143293426B
:1043600018D01432934217D01432934217D014321B
:10437000934217D0143293420CBF4FF480034FF096
:104380008063334A5360C36A002B5CD070BC18470B
:104390000423F6E74023F4E74FF48063F1E74FF49A
:1043A0008043EEE74FF48023EBE70225954025425A
:1043B00035D08D0733D51A68940606D41A6822F0D2
:1043C0000A021A60012280F82120204A934219D063
:1043D0001432934218D01432934217D014329342BD
:1043E00017D01432934217D0143293420CBF4FF4BB
:1043F00000134FF00073164A5360002380F82030FA
:10440000836AC1E70223F6E72023F4E74FF4007341
:10441000F1E74FF40053EEE74FF40033EBE70825E4
:10442000954025420FD009070DD5196821F00E01DE
:104430001960012303FA02F2726083634FF4807300
:104440000384036BA0E770BC704700BF0800024004
:1044500000000240034A0130116813685B1A83426E
:10446000FBD37047BC160020002337B502680193C8
:104470009368DB0702D5002003B030BD9368124972
:1044800043F001039360114B1B68B3FBF1F30193FD
:10449000019BABB90E4C2568936813F00103EAD178
:1044A0002168491B0229F7D9826A80F8243042F03A
:1044B00010028262C26A42F00102C2620120DBE79E
:1044C000019B013BE3E700BF40420F004C0000208E
:1044D000BC160020036810B59A68D10701D40020EB
:1044E00010BD9A680A4922F001029A600C689A6825
:1044F000D207F4D50A68121B022AF8D9836A43F05E
:1045000010038362C36A43F00103C3620120E7E73B
:10451000BC160020436A9A6A12F0500F18D19A6AAA
:1045200042F400729A621A68926802F46022B2F54C
:10453000602F10D1DA6872B99A6A22F480729A6296
:104540009A6AD20407D49A6A42F001029A627047CA
:104550001B6A1B6B184770477047436A9A6A42F0A0
:1045600040029A62DA6A42F00402DA62704700009E
:104570001A4A036890420AD0B0F1804F07D0A2F5E2
:104580009432904203D002F58062904215D14A687D
:1045900023F070031343114A90420AD0B0F1804FC8
:1045A00007D0A2F59432904203D002F58062904287
:1045B00003D1CA6823F4407313434A6923F080038C
:1045C000134303608B68C3620B688362034B98429A
:1045D00004BF0B690363012343617047002C014052
:1045E0002DE9F74F00221646644F654BDFF894C162
:1045F000DFF894E14FF001080D6808FA06F808EAC0
:10460000050438EA05057BD14D68032D07D8013D27
:10461000022D00F28E80DFE805F09CA1A700122D8C
:1046200000F09F8073D8112D00F09580FF2C98BF6B
:1046300082464FF00F0988BF00F1040A4FEA860551
:10464000DAF8008088BF203D09FA05FB28EA0B084C
:1046500002FA05F548EA0505CAF80050D1F804A0A9
:104660001AF0805F4CD0BD6926F0030845F00105C3
:10467000BD61BD6908F1804805F00105019508F5A7
:10468000803806F0030B019D4FEA8B0BD8F80850D9
:1046900009FA0BF925EA09093C4DA84268D005F54D
:1046A0008065A84266D005F58065A84264D005F50E
:1046B0008065A8420CBF0325042505FA0BF545EAE1
:1046C0000905C8F808501D681AF4803F14BF254337
:1046D000A5431D605D681AF4003F14BF2543A54340
:1046E0005D609D681AF4801F14BF2543A5439D603B
:1046F000DD681AF4001F14BF2C4325EA0404DC60B3
:104700000136102E7FF476AF03B0BDE8F08FDFF8EE
:1047100080904D450DD018D8A9F580194D4508D089
:1047200009F570294D4504D0A9F580194D457FF450
:104730007DAF8A68D2B1012A08BFC0F810804FF05F
:10474000080218BFC0F8148070E76545F1D07545C0
:10475000EDE7CA686AE7CA68043267E7CA680832E0
:1047600064E7CA680C3261E700225FE704225DE774
:104770000025A2E70125A0E702259EE700100240E0
:104780000004014000003110000032100008014018
:1047900000002210002337B5019390F8243004461E
:1047A000012B5FD0012380F82430FFF793FE0546EC
:1047B000002839D1A36A2C4823F4885323F002033C
:1047C00043F00203A362294B1A68294B59685B68BE
:1047D000C1F3C221415CC3F38133013322FA01F1F9
:1047E0005B00B1FBF3F3B2FBF3F252000192019BC9
:1047F000F3B92046FFF738FE23689A6842F00802B2
:104800009A601C4A10689968090715D4996841F0A4
:10481000040199601068996849071ED4A36A23F0BF
:10482000030343F00103A362002384F8243011E062
:10483000019B013B0193DAE71168091A0A29E2D9C1
:10484000A36A012523F0120343F01003A36200239F
:1048500084F82430284603B030BD1168091A0A29AB
:10486000D9D9EDE70225F5E7EEB100084C000020AC
:1048700000100240BC160020024A13680133136086
:10488000704700BFC4160020F8B50F4D0F4EFFF75C
:10489000EFFC2C680768336842689F4201D094425D
:1048A00010D20B68A71A9F420AD21B1B13440B603D
:1048B000336803602B6843600020FFF7CBFCF8BD32
:1048C00000230B600120F8E7841B0020641B0020FC
:1048D00008B9064B1868026B0020135CA52B02D0A8
:1048E000C0F38F0070470130F7E700BFE0150020EC
:1048F000064A13681968064B19B94FF0FF321A605F
:1049000070471268D268D2685268F8E7E415002050
:10491000601B0020054B1B6833B1054B1B68002B47
:104920000CBF02200020704701207047801B002030
:10493000C416002043689A684B608A609A68516088
:1049400099600368086101330360704730B50C68F3
:10495000631C0AD103695A684A6091608B60596090
:10496000036808610133036030BD00F1080213469B
:1049700052681568A542FAD9EDE70369D0E901123A
:104980008A6051605968814208BF5A600022026102
:104990001A68013A1A601868704700002DE9F84F4C
:1049A0003C4B1B68002B6ED13B4B1D6801351D60D5
:1049B000BDB93A4B1A68126842B14FF0500383F305
:1049C0001188BFF36F8FBFF34F8FFEE7344A19682A
:1049D000106818601160334A136801331360FFF7E1
:1049E00087FF314E00243368304F9D4210D214228D
:1049F0002F4B1B68DB6A5343FB58022B2D4B28BF00
:104A000001241B68002B18BF01242046BDE8F88F45
:104A1000DFF888A0DFF8A090DAF800301B681BB937
:104A20004FF0FF333360E2E7DAF80030DB68D3F8A9
:104A30000CB0DBF80420954201D23260D7E70BF1CD
:104A400004084046FFF799FFDBF828201AB10BF164
:104A50001800FFF792FF0122DBF82C00D9F8003094
:104A600082401A43C9F800201422414602FB00701C
:104A7000FFF760FF0E4BDBF82C201968CB6A9A42D7
:104A800028BF0124C8E70D4A0024136801331360CE
:104A9000BBE700BFC4160020841B0020E4150020E3
:104AA000E8150020641B0020601B0020EC1500208E
:104AB000E0150020881B0020CC160020681B002079
:104AC00032492DE9F8430B6843B94FF0500383F3A3
:104AD0001188BFF36F8FBFF34F8FFEE7FFF7C8FB5F
:104AE0000B68013B0B600C6824B10020FFF7B2FBA0
:104AF000BDE8F883264B1B68002BF6D0254D264ECB
:104B0000DFF898801FE0EB680127DC6804F10409F6
:104B100004F11800FFF731FF4846FFF72EFF14207D
:104B2000E26A316807FA02F30B4300FB0280494650
:104B30003360FFF7FFFE1A4BE26A1B68DB6A9A429A
:104B400001D3184B1F602B68002BDCD10CB1FFF791
:104B5000CFFE154D2C6844B10127124EFFF71EFF02
:104B600000B13760013CF9D12C600E4B1B68002B63
:104B7000BBD04FF0E0234FF08052C3F8042DBFF3B9
:104B80004F8FBFF36F8F0120B0E700BFC416002026
:104B9000C01600206C1B0020CC160020EC15002055
:104BA000E0150020881B0020681B002038B5C36872
:104BB000DC6844B94FF0500383F31188BFF36F8F63
:104BC000BFF34F8FFEE704F118052846FFF7D5FE27
:104BD000114B1B68E3B9251D2846FFF7CEFE0123C4
:104BE0000E49E26A08689340034314200B6029468B
:104BF0000B4B00FB0230FFF79DFE0A4BE26A1B687D
:104C0000DB6A9A4285BF0120074B0020186038BD3F
:104C100029460648EFE700BFC4160020CC16002046
:104C2000EC150020E0150020881B00206C1B0020E4
:104C30002DE9F04104464FF00108FFF719FB90F809
:104C400045501B4F6DB200F12406002D17DCFF23E9
:104C50004FF0010884F84530FFF7FCFAFFF708FB36
:104C600094F84450124F6DB204F11006002D12DC7E
:104C7000FF2384F84430BDE8F041FFF7EBBA636AE4
:104C8000002BE4D03046FFF791FF08B1C7F8008051
:104C9000013D6DB2D9E72369002BE9D03046FFF71B
:104CA00085FF08B1C7F80080013D6DB2DEE700BFA7
:104CB000881B00200A4B188A80B278B1D88880B24D
:104CC00060B1DA88D88892B2052A94BF42F2107394
:104CD0004EF6602380B288BF05385843704700BF46
:104CE0006816002038B5134A138A9BB20BB900200E
:104CF00038BDD3889BB2002BF9D00F4A0F4B1168F7
:104D00001B6843EA010288B1002AF1D00C4D2C68DF
:104D1000E41AFFF7CFFF8442E9D92868411AFFF768
:104D2000C9FF814294BF00200120E1E7002ADED0C4
:104D3000ECE700BF68160020AC150020B01500207D
:104D4000841B00207047002070470000034BD88C64
:104D500080B2003818BF0120704700BF68160020DD
:104D600030B50D4B0D4A33F83040450003EBC0031E
:104D700002EB4000418041882A4489B2A14238BFF9
:104D8000448051885B8889B2994222BF03F1FF3386
:104D90009BB2538030BD00BF66DA00086816002061
:104DA00010B5114B9C881B8CA4B29BB27BB1143400
:104DB000A4B2B4F5117F88BF3C2401202146FFF73F
:104DC000CFFFB4F5117F14BF0020012010BD0A34BD
:104DD000A4B2B4F5967F88BF0A2401202146FFF7CC
:104DE000BFFFB4F5967FEEE76816002010B5154BAF
:104DF000DC8D1B8CA4B29BB2A3B184B140F25133C1
:104E00001434A4B29C4288BF002421461620FFF728
:104E1000A7FFB4F5527F34BF0020012010BD4FF42E
:104E2000F074F2E764B10A34A4B2B4F5E17F88BF4C
:104E3000002421461620FFF793FFB4F5E17FEAE74F
:104E4000FA24F6E768160020F0B51049104E01EB81
:104E5000400406EBC0029588638852889BB2A2EB9F
:104E6000050C6345B6BF638836F830305B194FEAEE
:104E70004007B8BF9BB263803944488880B2101A9B
:104E80008542B4BF00200120F0BD00BF681600209D
:104E900066DA000870B50F20FFF7D6FF05462748F1
:104EA000C18D42888388008C89B280B292B29BB255
:104EB00080B3052001EBC10102EBC206A031A03690
:104EC00003EBC304B1FBF0F1B6FBF0F6A034B4FB86
:104ED000F0F489B2B6B20A23B1FBF3F1B6FBF3F6F4
:104EE000A4B2B4FBF3F401EB81014900162089B2AE
:104EF000FFF736FF06EB86014900002089B2FFF775
:104F00002FFF04EB84014900012089B2FFF728FF3D
:104F1000284670BD09242039203A01EB810102EBBB
:104F2000820291FBF4F192FBF4F6203B03EB830346
:104F300093FBF4F489B2B6B2CDE700BF6816002047
:104F400038B5002314210F4D04462B70D0E90032F0
:104F500012781B6801FB0233187C222809D8FFF75E
:104F600073FF2B7813B10322E3681A6001232B70BF
:104F700038BD586808B18047F3E70122A3681A706A
:104F8000EFE700BF64120020F0B55442A0421E4675
:104F9000059D134635DD602833DC002800EB020751
:104FA000B6BF44420024E4B2602FC4BFC0F1600227
:104FB000D2B219BB13492718096805EB040C0F443A
:104FC00021468A4213D8102E1BD1102E18BF002361
:104FD0000D492344096820442B440844A24210D9B7
:104FE00013F8011B013400F8011BE4B2F6E71CF8CA
:104FF00001EB013107F801EBC9B2E2E70829E4D07F
:10500000E1E7F0BD20110020241100200229F7B5AE
:1050100004461CD11022214B21491A700C22214B2D
:105020001A70204B204E1D781C4BB6F900701B786F
:105030003846DA086A4304FB021100911B492A46EC
:1050400091F900103D44FFF79FFF358009E00128EA
:1050500009D1164BB3F900201AB913490A80082266
:105060001A8003B0F0BDFCD90C4A0E4B49B9082098
:1050700010700622B4F58C7F1A700DD300242146DF
:10508000CFE7102111700C22B0F58C7F1A70F5D289
:105090000749023CA4B2C4E70649FAE7941200208B
:1050A00010D6000895120020EA110020EC11002013
:1050B00076B80008D0D3000838B504460D462378EA
:1050C0008BB1F02B05D898B201342946FFF79EFF2B
:1050D000F5E7607838B1F03B0F38C3EB03230344A6
:1050E00098B20234F1E738BD002205490A8005492B
:1050F0000A800178012914BF11460130FFF7DCBF97
:10510000EA110020EC1100200A4B10B50C4603F107
:10511000E80203EB4003B3F8920004EB44041044AC
:10512000FFF7E2FF0022044BA400023C1C80034B6B
:105130001A8010BD48B20008EA110020EC110020CE
:1051400008B507210520FFF7DFFF064B06481B8C3B
:10515000064A9BB2002B08BF1046BDE8084001215B
:10516000FFF7AABF6816002000B1000855B100087B
:1051700008B507210F20FFF7C7FF084B08485B8CD5
:1051800001219BB2002B40F21E4308BF4FF4846301
:105190001844BDE80840FFF78FBF00BF6816002025
:1051A00030B30008072108B50846FFF7ADFF094BEB
:1051B000D98989B2012908D002294FF0010106D00E
:1051C0000548BDE80840FFF777BF0448F9E7044801
:1051D000F7E700BF6816002048B700084AB7000884
:1051E0004CB70008072108B50920FFF78DFF0B4BCE
:1051F000D98A89B202290AD003290BD001291ABF02
:10520000012107480748BDE80840FFF755BF0121C5
:105210000548F8E701210548F5E700BF68160020BA
:105220005EB7000852B7000854B7000856B7000828
:10523000072108B51820FFF767FF094B998C89B241
:10524000012908D002294FF0010106D00548BDE828
:105250000840FFF731BF0448F9E70448F7E700BF0B
:10526000681600205EB7000860B7000862B7000843
:1052700007210C20FFF748BF05210B20FFF744BF93
:10528000072108B51B20FFF73FFF0B4B998A89B216
:10529000022908D0032909D001290AD10748BDE80D
:1052A0000840FFF709BF01210548F8E7012105483B
:1052B000F5E701210448F2E76816002050B700081E
:1052C0005AB700084EB7000858B7000805210D204E
:1052D000FFF71ABF37B50446284B03F1E80003EB8C
:1052E0004403B3F8D4301844FFF7FEFE244A938AEF
:1052F0009BB2022B23D0032B14BF4FF4FA754FF44B
:105300009675204B20491B78E3B9908A80B2C8B1CA
:105310000B681E48A3421E4B02D00C601968016046
:105320001B680168528A5B1A92B2B3FBF5F302B3B1
:105330000322B3FBF2F202EB42029B1A0AE04FF4A3
:10534000C875DEE78D230B60938A9BB2002B0CBFE0
:10535000022300236020444304EB43130D4C00213F
:105360002344009310234E201A46FFF70DFE03B08E
:1053700030BD022B28BF0223ECE700BF48B2000873
:1053800068160020421000205400002078120020EF
:10539000841B002055D800080020FFF79BBF012088
:1053A000FFF798BF0220FFF795BF0320FFF792BFDA
:1053B0000420FFF78FBF37B50C4611460022042C9E
:1053C0000092ADF804208DF8062030D90A22B0FBF7
:1053D000F2F502FB150002308DF80500B5FBF2F086
:1053E00002FB105502358DF8045080B20A25B0FB3F
:1053F000F5F205FB120002308DF8030090B20A2589
:10540000B0FBF5F205FB120002308DF8020090B2FD
:105410000A25B0FBF5F205FB120002308DF8010001
:1054200090B209E06846FFF747FE03B030BDDDD01B
:10543000032CE4D0012CEBD10A25B0FBF5F205FBDF
:10544000120002308DF80000002BEBD06A460023DA
:105450000C20013C9C42E5DD1578022DE2D102F8DA
:10546000010B0133F6E7000008B506210020FFF725
:105470004BFE0A4A13899BB26BB10123108919466E
:10548000023080B21A46FFF796FF01210448BDE8BA
:105490000840FFF711BE01210248F8E76816002016
:1054A00002B1000804B1000870B5174D2B899BB2FA
:1054B000FBB104211920FFF727FE0A240123688984
:1054C0001A4680B2B0FBF4F00221FFF774FF01210D
:1054D0000E48FFF7F1FD688980B2B0FBF4F304FBDE
:1054E0001300BDE87040012380B21A461946FFF749
:1054F00062BF05211920FFF707FEBDE870400121BA
:105500000348FFF7D9BD00BF6816002007B10008A7
:1055100064B700080521012010B5FFF7F5FDBDE8CF
:105520001040044B03219888012380B21A46FFF7EC
:1055300042BF00BF6816002008B505210220FFF712
:10554000E3FD134BDA8892B22AB901211148BDE874
:105550000840FFF7B1BDDA88D88892B2052A0CD886
:10556000012380B200EB80004000022180B21A4685
:10557000FFF721FF01210848E9E70123053802214F
:1055800080B21A46FFF717FF01210448DFE700BF8A
:105590006816002058B7000802B1000809B10008D9
:1055A00008B505210320FFF7AFFD0A4A138B9BB214
:1055B0002BB901210848BDE80840FFF77DBD012354
:1055C000108B022180B21A46FFF7F5FE0121034835
:1055D000F1E700BF6816002058B7000809B10008BD
:1055E0000721042010B5FFF78FFDBDE81040012210
:1055F000034B1146188A002380B2FFF7DCBE00BFC0
:105600006816002008B505211220FFF77DFD0A4A23
:10561000538E9BB22BB901210848BDE80840FFF723
:105620004BBD0123508E022180B21A46FFF7C3FE04
:1056300001210348F1E700BF6816002058B70008B1
:105640000BB100080521082010B5FFF75DFD094AE0
:10565000D38D9BB243B1BDE810400123D08D03210F
:105660001A4680B2FFF7A7BE0121BDE810400248EC
:10567000FFF722BD6816002058B700080621142045
:1056800010B5FFF741FDBDE81040044B0221188F13
:10569000012380B21A46FFF78EBE00BF68160020B5
:1056A0000621152010B5FFF72FFDBDE81040044B73
:1056B0000221D88E012380B21A46FFF77CBE00BFBC
:1056C0006816002070B5154D05211620FFF71CFD4A
:1056D000EB8C9BB2DBB101230A24E88C1A4680B222
:1056E0001946B0FBF4F0FFF766FE01210C48FFF706
:1056F000E3FCE88C80B2B0FBF4F304FB1300BDE8DC
:105700007040012380B21A461946FFF754BE0121AA
:10571000BDE870400348FFF7CFBC00BF681600200B
:1057200007B1000858B7000807211C2010B5FFF783
:10573000EBFCBDE81040044B188D012380B21A46E3
:105740001946FFF738BE00BF6816002007211D204C
:1057500010B5FFF7D9FCBDE81040044B588D01236C
:1057600080B21A461946FFF726BE00BF6816002011
:105770000221FFF74BBC002814BF10201120FFF7B7
:10578000F7BF000008B50E200721FFF7BDFC054B51
:10579000D88BBDE8084080B2003818BF0120FFF761
:1057A000EABF00BF6816002008B506200721FFF7F2
:1057B000ABFC054B988BBDE8084080B2003818BFA1
:1057C0000120FFF7D8BF00BF6816002008B50A20E7
:1057D0000721FFF799FC054B588BBDE8084080B2C4
:1057E000003818BF0120FFF7C6BF00BF68160020B1
:1057F00008B513200721FFF787FC054B988EBDE8FD
:10580000084080B2003818BF0120FFF7B4BF00BFC6
:105810006816002008B51A200721FFF775FC054B14
:10582000588ABDE8084080B2003818BF0120FFF751
:10583000A2BF00BF68160020F8B51E4B05460E201B
:105840001C78FFF795FF1F20B5FBF0F01A4BC0F155
:105850000A0010F0F80F1968C5B2C0F3C4060BD0E7
:10586000F32C8CBF01230D23204600272344DBB2F9
:10587000421CD2B2934219D16022F32C02FB06F6ED
:105880004FF0FF038CBF01220D2205F00705AB404E
:105890002244D2B263F0FF03601CC0B2904208D031
:1058A00034440D5D1D400D550446F5E70F54104678
:1058B000DEE7F8BDEA1100202011002070B5234A70
:1058C000234D9368926883F4007382F04002C3F31F
:1058D0004023C2F3801243EA420053EA42031FBF4F
:1058E0001C4B1A681C4B1A602B7883420FD168B18D
:1058F000184B1A4A1B6812689B1AB3F5C87F20D947
:10590000012820D002280CBF0820202070BD114C97
:10591000124920B1032B00D1184600230AE0226867
:105920000E68921BB2F5C87F09D2012B02D0022B60
:1059300018BF1023226828700A601846E6E703465D
:10594000F8E70020E2E70420E0E700BF000801409C
:105950004C120020841B0020AC15002050120020A7
:1059600048F2E8034343642040F23D12DB0B43431B
:10597000F0B5B3FBF2F3214A118E89B239B1118E21
:1059800089B28B4291BF0023128E92B29B1A1C4A9D
:1059900098B21360D8B101221A4931F8224095001B
:1059A000A04215D24FF47A76013A31F8227098B2BB
:1059B000C01B7043E41B90FBF4F001EB820229440E
:1059C00052884B889B1A584390FBF6F01044F0BD68
:1059D0000132322AE1D14FF47A729BB2A3F54053DF
:1059E000313B02FB03F0EE2390FBF3F00A23584314
:1059F00090FBF2F000F5F570E9E700BF68160020B3
:105A0000B4150020C0DC00084AF6AA22014B1B682E
:105A10001A607047201400204FF0E0204FF08054AF
:105A200008B506490B68012B05D9C0F8044DBFF332
:105A30004F8FBFF36F8FFFF7E7FFF3E7EC15002001
:105A40000122084B1A7040F21B12074B1A80074BB9
:105A50001B68DA6240F20D125A6340F682229A62A3
:105A6000704700BF43100020B416002074140020BB
:105A70000022084B1A7040F20D12074B1A80074B98
:105A80001B68DA624FF483725A6341F204529A62DD
:105A9000704700BF43100020B4160020741400208B
:105AA000037B826810B530F81340121B0A448260F1
:105AB00020F81310013303F00303037310BD00003B
:105AC00010B5044671B10D4B0D481B68D96B1A6CAB
:105AD00011445A6C9B6C1144194489B2C90089B2B3
:105AE000FFF7DEFF064B9B68002BB8BF0333C3F301
:105AF0008F039B00B3FBF4F080B210BDCC120020EA
:105B00006812002008B5084B0146988D80B2FFF757
:105B1000D7FF4B234043B0FBF3F0044BC0EB002016
:105B20001B88B0FBF3F008BD68160020B4160020F7
:105B300010B50446002C084606DA094B988D80B251
:105B4000FFF7BEFF002010BDFFF7DCFFC4EB04240D
:105B5000B4FBF0F0FF2828BFFF20C0B2F3E700BF7E
:105B60006816002010B50121FFF7E2FF174B9028BF
:105B700004461A7820D90AB100221A700A21144A60
:105B80001B781180134A1470134A12789A4202D07B
:105B9000C3B1FFF755FF0020FFF7B4FF4443FF20D8
:105BA000E821B4FBF0F418200C4A13684B4300FBC7
:105BB0000434240A146010BD6F28DFD8002ADDD118
:105BC0000122DAE7FFF754FFE5E700BF50000020AD
:105BD00040100020D815002043100020D0160020CF
:105BE00008B5084B08481B68D96B1A6C11445A6CED
:105BF0009B6C1144194489B2490089B2FFF750FFE8
:105C0000084608BD9C1200203C12002038B505460D
:105C100058B3FFF7E5FFFFF7A3FE04466DB100217F
:105C20000B46164A013332F8020BDBB2102B01444B
:105C3000F8D1134889B2FFF733FF6420104B9B68FB
:105C4000002BB8BF0333C3F3CE03A3F59B53053B2F
:105C5000434340F2E23093FBF0F30A209BB2B3FBE4
:105C6000F0F3181920EAE07038BD064B9868002858
:105C7000B8BF0330C0F38F00CDE700BF7C00002029
:105C8000541200203C120020202210B5214B83F832
:105C90003D20214B1868002835D0036C43B14FF0EC
:105CA000500383F31188BFF36F8FBFF34F8FFEE76D
:105CB000036853B9836843B14FF0500383F31188ED
:105CC000BFF36F8FBFF34F8FFEE7FEF79BFAEFF343
:105CD00011844FF0500383F31188BFF36F8FBFF32C
:105CE0004F8F826BC36B9A420BD290F845100132F2
:105CF000FF294BB2826307D1436A13B12430FEF708
:105D000055FF84F3118810BD01335BB280F8453034
:105D1000F7E700BFCC130020F0110020426A92F890
:105D20003D3092F83E10212BD8B2C9B2136803D08F
:105D300022280CD120290AD1596821F40061596028
:105D4000002151855A6842F440725A6070471968C0
:105D500021F480611960196841F400711960596873
:105D600021F480515960596821F400615960002381
:105D70005385136C0BB1FFF787BF202182F83D10CC
:105D800092F83E1082F83E30F5E7436A19680A68D7
:105D900022F480620A60002220215A8583F83D1097
:105DA00083F83E201A6C42F010021A64FFF76CBFB1
:105DB000436A1A68116821F4806111600021586BF0
:105DC00059854163986B416393F83D0060284FF01B
:105DD000200083F83D0083F83E1008BF1964136863
:105DE00023F001031360FFF74FBF0020704700004E
:105DF00070B5154B154D06461C6828680430FEF733
:105E0000BCFD40B92A681249D06A01220B68824061
:105E100023EA02030B602B68A4195C6007D30D4BC7
:105E200018682968BDE870400431FEF78FBD0A4B41
:105E3000186829680431FEF789FD084B1A689442F6
:105E400038BF1C6070BD00BF841B0020E01500201F
:105E5000CC160020E8150020E4150020601B00206F
:105E600008B550B94FF0E0234FF08052C3F8042D2D
:105E7000BFF34F8FBFF36F8F08BD074B1B680BB18C
:105E8000FEF79CF9FEF7F8FCFFF7B2FFFEF718FEED
:105E90000028E7D0F0E700BFC41600203220FFF74B
:105EA000DFBF000070B50D4E35680544FFF706FDF5
:105EB000044654B1FFF702FD0446FFF7EFFF3368D5
:105EC0009D42F6D270BD002CFCD1FFF7F7FC0446D2
:105ED000FFF7E4FF33689D42F5D2F3E7841B00200F
:105EE00010B50C46044B19681831FEF72FFD2046FB
:105EF000BDE81040FFF77CBFE01500202DE9F0431E
:105F00009B4B85B01C683223019344B94FF050037A
:105F100083F31188BFF36F8FBFF34F8FFEE7256CBC
:105F200045B14FF0500383F31188BFF36F8FBFF378
:105F30004F8FFEE7FEF7EEFC50B9019B63B14FF0C7
:105F4000500383F31188BFF36F8FBFF34F8FFEE7CA
:105F50002846884F884E96E00546FAE7019B5BB9D4
:105F6000002D00F037814FF0500383F31188BFF309
:105F70006F8FBFF34F8FFEE720B93B6802937F4BD3
:105F80001B680393FEF766F9FEF776FCFEF770F9DF
:105F900094F8443001A9FF2B04BF002384F8443057
:105FA00094F8453002A8FF2B04BF002384F8453045
:105FB000FEF750F9FEF768FC002840F09C80FEF7E1
:105FC00057F9A36B002B56D1FEF744F92368002B39
:105FD0003BD1FEF74DF9A568002D33D03268EB6A4E
:105FE000D26A93427FD2AA69DFF89481002AA1BFC6
:105FF0003268D26AC2F10602AA61142202FB03834C
:106000006A699A426BD105F104094846FEF7B5FC6E
:106010005C4B38B90120E96A1A6800FA01F122EAFA
:1060200001021A6032681968D26AEA62012505FA2B
:1060300002F0084318601420494600FB0280FEF776
:1060400079FC0120FEF706F90546019904F12400C8
:10605000FFF746FF2046FEF7EBFDFEF731FD88B95E
:106060004FF0E0234FF08052C3F8042DBFF34F8F61
:10607000BFF36F8F06E02046FEF7ECF8FEF7D8FD81
:10608000FEF71EFD0120FEF7F3F8A36B002B3FF493
:1060900065AF013BA363236843B9374B1A681AB154
:1060A00019688A6D01328A651B68A360236973B120
:1060B00004F11000FEF77AFD48B14FF0E0234FF0F5
:1060C0008052C3F8042DBFF34F8FBFF36F8FFEF7DD
:1060D000C1F8012505F0010005B0BDE8F083336883
:1060E000DB6AEB62ADE73368686DDB6A98422CBF10
:1060F00000200120A6E72046FEF79AFDFEF7E0FC0F
:10610000FEF7B6F8A36B13B1FEF7A4F8BAE7FEF7F3
:10611000A1F8002DDED0FEF7ABF8636A1BB1236B4C
:106120001B68C3F10603A468002C53D0A16D41B9CC
:106130004FF0500383F31188BFF36F8FBFF34F8F7E
:10614000FEE7626D934238BF1346E26A934241D044
:1061500001293FD1084909688C4215D14FF05003FD
:1061600083F31188BFF36F8FBFF34F8FFEE700BF3C
:10617000F0110020641B0020E0150020841B00208B
:10618000EC150020CC160020A169E3620029A4BF11
:10619000C3F10603A3611423104D03FB025263698C
:1061A000934217D1261D3046FEF7E7FB0C4AE76AFB
:1061B00028B901241368BC4023EA040313600123B7
:1061C00014201168BB400B4300FB0750314613609D
:1061D000FEF7B0FBFEF73EF800257BE7EC1500204C
:1061E000CC160020012508B5174CFEF741F82368AE
:1061F00093F86030022B12D023686420DA6DDA65E0
:10620000236883F86050FFF7F3FD4FF0E0234FF071
:106210008052C3F8042DBFF34F8FBFF36F8FFEF78B
:1062200019F8FEF725F8236893F86030022B01BFB8
:106230002268D36D03F07F43D3650022236883F87F
:106240006020FEF707F8D0E7E0150020154B70B589
:106250001D68154E6A6912F0800201D000201FE00F
:106260006C6914F480640FD13268521A9042F1D2F2
:106270001A6C032042F020021A6420221C6383F867
:106280003C4083F83D200BE06FF48061696104219C
:106290001964202101201A6383F83C2083F83D1003
:1062A00070BD00BFCC130020BC160020144B70B58D
:1062B0001D68144E6A6912F0400201D000200EE001
:1062C0006C6914F010040BD06FF01001696120218B
:1062D00001201A6483F83C201A6383F83D1070BDD6
:1062E0003268521A9042E5D21A6C032042F0200222
:1062F0001A64202283F83C4083F83D20EFE700BF7A
:10630000CC130020BC16002070B50546144A154E6B
:1063100014686369DB4313F0020014D0636913F45B
:10632000806311D02368202143F4007323606FF44D
:10633000806363610423136400230120136382F8E4
:106340003C3082F83D1070BD3068401A8542E0D282
:1063500020211363032082F83D1082F83C30F2E7DD
:10636000CC130020BC160020F0B5114DDFF844C05E
:106370002E68070C012F0CBF7469B46920EA04046D
:10638000A4B2B4FA84F46409A14201D000200EE062
:10639000DCF80040E41AA242ECD2002320220320C1
:1063A0002B6385F83C3085F83D2085F83E30F0BD04
:1063B000CC130020BC16002010B54CF250342049FC
:1063C000204B0868DA68D20733D4DA68910644BFF4
:1063D0002022DA60DA68D20606D4DA69D40703D458
:1063E000D86810F0040023D0164AD36813F01003C5
:1063F00005D01549CB6943F00203CB611023D26865
:10640000500706D5104943F00403CA6942F001025F
:10641000CA610C4AD169C90708D50B48C16941F066
:106420000401C161D16921F00101D1610120D36072
:1064300010BD0A68121AA242C4D90320F8E700BFAF
:10644000BC16002000200240B8150020134B10B5E8
:10645000DB68C3F30223C3F107041A1D042C28BF11
:106460000424062A88BFDA1E4FF0FF3398BF0022AB
:10647000A34021EA0303002803FA02F3ACBF00F1B2
:106480006040074A4FEA0313DBB2B5BF00F00F00CC
:1064900000F56140135480F8003310BD00ED00E0BA
:1064A00014ED00E013B590F83D30044603F0FF0210
:1064B00000687BB91D4B84F83C20984228D103F535
:1064C0000333DA6942F00202DA61DB6903F00203A6
:1064D0000093009B0223211D84F83D30FEF748F80D
:1064E0000123002084F8463084F83E3084F83F30A1
:1064F00084F8403084F8413084F8423084F84330E6
:1065000084F8443084F8453084F83D3002B010BD42
:10651000B0F1804FDED1064BDA6942F00102DA6158
:10652000DB6903F001030193019BD3E70004004002
:106530000010024015490B681A6A22F001021A6223
:106540001A6A1A62124A93420DD141F21112186A64
:10655000104208D140F24442186A104202BF5A6CFD
:1065600022F400425A6441F21112186A104208D112
:1065700040F24442186A104202BF1A6822F0010237
:106580001A60012381F83E30704700BFBC14002020
:10659000002C0140037F082B01D1FFF7CBBF7047D0
:1065A00090F83E30012B17D1022380F83E3003686B
:1065B0001A6A22F001021A621A6A42F001021A6291
:1065C0000D4A934209D15A6C42F400425A649A68C7
:1065D00002F00702062A0AD17047B3F1804FF6D0C5
:1065E000064A9342F3D002F580629342EFD01A68D4
:1065F00042F001021A607047002C01400004004084
:1066000010B5036804461A6991070ED5DA68920737
:106610000BD56FF002021A61012202779B699B077A
:1066200001D1FFF7B7FF0023237723681A695007CA
:1066300010D5DA6851070DD56FF004021A610222F5
:1066400022779B6913F4407F02D12046FFF7A2FF17
:106650000023237723681A6912070FD5DA68100719
:106660000CD56FF008021A6104222277DB699907C2
:1066700002D12046FFF78EFF0023237723681A6993
:10668000D20610D5DA68D0060DD56FF010021A6167
:1066900008222277DB6913F4407F02D12046FFF7FE
:1066A00079FF0023237723681A69D1071CD5DA689C
:1066B000D20719D56FF001021A612368B3F1804F38
:1066C00034D11E4A1E4913880968013B9BB21380CE
:1066D0001C4B1B78DBB20B640B6C23B313889BB28F
:1066E0000BB31948FFF75CFF23681A69100605D53C
:1066F000DA68110644BF6FF080021A6123681A69D4
:10670000520605D5DA68500644BF6FF040021A61A0
:1067100023681A69910605D5DA68920644BF6FF0BE
:1067200020021A6110BDFFF705FFDDE7074A93421B
:1067300001BF074A136801331360D5E740100020FA
:1067400074140020D8150020BC140020002C014037
:10675000BC16002090F83C3010B5012B21D002234C
:1067600080F83D30036809685A689C6822F070021E
:106770000A435A600B4A93420AD0B3F1804F07D0C4
:10678000A2F59432934203D002F58062934202D183
:1067900024F080049C60012380F83D30002380F8C1
:1067A0003C3010BD002C014070B5826A044686B0B2
:1067B000002A3BD1664B0168C262994280F82420CE
:1067C00003F56C4340F0888099694FF4807541F47B
:1067D000007199619B695F4903F400730293029B06
:1067E0005D4B4FF48060C3E900128021C3E90315BB
:1067F0002021C3E905014FF4805158481A649A607A
:10680000D9618168D86321F47F5121F0300141F4CE
:10681000AD5181609A631D8423625C620F21122056
:10682000FFF714FE4FF480224D4B1A602046FDF70F
:1068300051FEA36A13F0100340F08580002840F059
:106840008280A26AE069616822F4885222F0020222
:1068500042F002020143A068A262E268B0F5807FC4
:1068600041EA420158D0012814BF00264FF4807637
:106870006569012D07D1002A50D1A269013A46EA83
:10688000423545F400662268B0F5807F556825F4EE
:10689000694545EA060555609668324D05EA0605E4
:1068A00045EA0105956001D0012802D12369013B29
:1068B0001B05D06A20F470000343D36292682A4B10
:1068C0001340994233D10023E362A36A23F0030308
:1068D00043F00103A36234E09A69032542F4806225
:1068E0009A619B6902A903F480630193019B0123D0
:1068F0001E48CDE90235FDF773FE8023A0F58060C8
:10690000CDE90235FDF76CFE022300F58060CDE98C
:106910000235FDF765FE81E70646A9E7A26A42F067
:106920002002A262E26A42F00102E262ABE7A36ADD
:1069300023F0120343F01003A362E36A43F0010360
:10694000E36206B070BDA36A43F01003C2E700BF64
:106950000024014008000240FC1200200000024018
:1069600000E100E0FDF7E1FFFE0E1FFF000C01401B
:10697000F0B56E4C6E4E94F83D3087B003F0FF05D5
:10698000002B5FD1C02212230127CDE9022302236D
:10699000684802A9CDE9047384F83C50FDF720FE55
:1069A000F369654A43F40013F361F369182003F4B3
:1069B00000130193019B614B6149C3E900258022CB
:1069C000C3E90555C3E90325C3E90F109D60DD61E7
:1069D000D1F88000DFF86CC1DFF86CE100EA0C0050
:1069E0001043C1F880004FF480709D631884A36346
:1069F0005C62564BC3E903254FF48052C3F800E0B4
:106A0000DA614FF0100E1422C3E901E5C3E9055520
:106A1000C3E90F12CA6E02EA0C0242F4845242EA3F
:106A20000E02CA669D6318840F211F205C62636397
:106A3000FFF70CFD4FF00043454D20202B60FFF782
:106A400005FD6F602423206884F83D300368414AC7
:106A500023F00103036073683F49C3F30223D35C4F
:106A60003E4A1268DA4063688B4294BF3C493D4914
:106A70008A428CBF0021012109B107B0F0BD364D1B
:106A80003949AB42B2FBF1F188BF4FF496764160D1
:106A900082BF71434FF47A76B1FBF6F1AB4201F15C
:106AA0000101016202F1FF3223D85B00B2FBF3F275
:106AB000531C40F6FC72134233D0C3F30B03C36183
:106AC000D4E9073213430360D4E9032313438360FB
:106AD000D4E905321343C3600368202243F0010365
:106AE00003600023236484F83D20236384F83E3050
:106AF000C3E7A16851B903EB4303B2FBF3F30133DE
:106B0000C3F30B037BB143F40043D8E719214B4394
:106B1000B2FBF3F30133C3F30B0323B143F440435C
:106B2000CDE70423CBE70123C9E700BFCC13002046
:106B300000100240000C0140800002404013002081
:106B4000000002400FC0FFFF6C00024084130020D1
:106B500000E100E0EEB10008A08601004C0000203A
:106B60007F841E00FF083D0040420F00F0B5284D15
:106B700011202A6885B01368402623F001031360B2
:106B80000123CDE9010302238027224C69462046D8
:106B900003930096FDF724FD26610097FDF720FD85
:106BA00065234FF480022761A168090626D51222C9
:106BB00001234027CDE90123802602236946154899
:106BC00003930097FDF70CFD0096FDF709FD276183
:106BD00026612A68136843F40043136000BF2A68E3
:106BE000136823F40043136000BF2A68136843F05E
:106BF00001031360FFF7BCFE05B0F0BD226100BFCA
:106C000000BF00BF00BF013B2661CDD1F4E700BF4C
:106C1000CC130020000C01400023F7B5019390F83D
:106C20002430012B00F0858001231F2680F82430BA
:106C30004D680F690C68EA1B02EB82020F32964026
:106C400046F44016BD426FEA0606036873D8D3F8CF
:106C500038C0013F04FA02F242EA07520CEA060683
:106C600032439A639A68D60707D49A68CE6922F4A9
:106C7000E04222F0010232439A608E69012E0CD16B
:106C8000CA69B2F5E04F0BBF5A68826A42F480626B
:106C900042F020020CBF5A6082624A69012A05D183
:106CA000002E4CD15A6842F480525A60092C4FF0A1
:106CB0000706D1F808C004EB440245D9DF681E3A44
:106CC000964027EA06060CFA02F23243DA60A4F193
:106CD0001006012E98BF9A68CF689CBF42F400024C
:106CE0009A60022DDFF8A8C037D0032D3BD0012DCC
:106CF0003FD15A6902EA0C023A435A61012E15D873
:106D0000244A93423ED19A6812020FD49A68102CFA
:106D100042F400029A6009D11F4B204A1B68B3FB62
:106D2000F2F30A2253430193019B43BB002380F8F3
:106D3000243003B0F0BD9A6B16409E6392E7826ADE
:106D400042F020028262B1E71F69964027EA0606F8
:106D50000CFA02F216431E61B9E79A6902EA0C02C4
:106D60003A439A61CAE7DA6902EA0C023A43DA6105
:106D7000C4E71A6A02EA0C023A431A62BEE7019BB0
:106D8000013BD0E7836A43F020038362CEE700BF74
:106D900000F0FFFF002401404C00002040420F00A3
:106DA00010B590F824300446012B3DD0012380F823
:106DB0002430FDF759FB00283FD1A36A214A23F470
:106DC000405323F0010343F48053A36223689342AA
:106DD00005D1A2F58062526812F4702F25D1A26A03
:106DE00022F48012A262A26A12F4807208BFE262E8
:106DF000002284F824206FF004021A605A685205B9
:106E000012D49A6802F4E042B2F5E04F11D10D4A73
:106E1000934205D1A2F58062526812F4702F08D116
:106E20009A6842F402129A6010BDA26A42F480127B
:106E3000D8E79A6842F40042F5E7002384F824304A
:106E4000F2E700BF00280140054B1A69120605D57C
:106E5000044A5A6002F188325A601B69704700BFC9
:106E600000200240230167452DE9F843FEF7CCFDE1
:106E700035232D4D2D4CEB600120FFF7E5FFFDF78D
:106E8000E9FAFEF7C1FD237E012B07D0012323760B
:106E9000FFF792FA074668B300232376FFF7D4FF83
:106EA0000025234F204EDFF88C80FEF7ADFD237EBA
:106EB000012B15D0012337F815902376FFF77CFAC4
:106EC00060B9E061336943F00103336128F815903C
:106ED000FFF772FA336923F001033361002323764D
:106EE0000135262DE1D1104A136943F08003136167
:106EF000BDE8F8830F4E06F580684645CCD2E761C1
:106F00002B6943F002032B616E612B6943F0400350
:106F10002B61FFF751FA2B6923F002032B61002844
:106F2000BAD106F58066E8E700200240B8150020D7
:106F30006816002000FC0008F8B51D4B9A6C013261
:106F40001CBF4FF0FF329A641A8818BF012492B216
:106F500008BF0024222A0DD84FF6FF701A8892B27B
:106F6000222A04DC03EB420148800132F8E72322A5
:106F700001241A8000220F4903EB420675880F880E
:106F8000ADB2AF424FEA420004D875884E88ADB228
:106F9000AE4203D2CC881844448001240132232A13
:106FA00001F10801E8D10CB1FFF75EFF2046F8BD02
:106FB0006816002066DA000810B590F83D300446E7
:106FC00003F0FF020BB980F83C200223206884F80C
:106FD0003D30211DFDF7CCFA012384F8463084F8BA
:106FE0003E3084F83F3084F8403084F8413084F8F3
:106FF000423084F8433084F8443084F8453084F8D3
:107000003D3010BD90F83D30012B1ED1022380F899
:107010003D300368DA6842F00102DA600B4A9342BD
:107020000AD0B3F1804F07D0A2F59432934203D037
:1070300002F58062934204D19A6802F00702062AA0
:1070400003D01A6842F001021A607047002C014018
:1070500013B500211920FFF7F9F94FF00072194B11
:10706000194C1A60194B20469A6942F400629A61E1
:107070009A6902F400620192019A5A685A685A6841
:107080005A68134A12685B68124AC3F3C223D25C7F
:10709000114B21611B68A160D340104AB3FBF2F38E
:1070A0000F4A013B226040F2E7326360E260FFF783
:1070B000F9F928B9204602B0BDE81040FFF7A2BF99
:1070C00002B010BD00E100E02C14002000100240CE
:1070D00000200240EEB100084C00002040420F00AA
:1070E000002C0140F0B590F82040012C27D001245D
:1070F00090F8215080F82040A5424FF0000427D19D
:1071000002268463046880F82160266826F0010660
:107110002660D0E90F67BD40756063604368102B3F
:10712000C36A0BBFA260A160E160E26043B1236863
:1071300043F00E032360236843F001032360F0BD96
:10714000236823F004032360236843F00A03F1E774
:1071500080F82040F3E7000070B5124B0A269C8DA2
:10716000114BA0B29C680022002CB8BF0334C4F3BA
:107170008F04A400B4FBF0F4A4B2B4FBF6F5012331
:1071800028460221FEF717F900210848FDF794FF71
:10719000012306FB1540BDE870400022194680B26D
:1071A000FEF709B9681600206812002007B1000830
:1071B00010B415490B899BB223B30B89888D9AB201
:1071C000124B84B29868931C0028B8BF0330C0F3F8
:1071D0008F008000B0FBF4F0DBB280B2B0FBF3F0C4
:1071E0004B899BB2834288BF48894B8988BF80B254
:1071F0009BB2C01A092828BF09200430C0B210BCB5
:10720000FEF7B6BA0F20FAE76816002068120020D1
:1072100008B547F6C070FEF7A3FB64220A4B9B68D3
:10722000002BB8BF0333C3F3CE03A3F59B53053B39
:10723000534340F2E23293FBF2F30A229BB2B3FBD8
:10724000F2F3013B184408BD541200202DE9874891
:107250000020FEF787FC00238026854A854F1360B7
:107260003A68854B854D1A600520FEF7F9FD01202F
:10727000FEF7CCFCA88D012180B2FEF721FC013E77
:10728000F2D1DFF8FC810196FCF7F2FF3B68DB6D81
:107290008BB901223B684FF4FA6083F86020FEF757
:1072A000A7FD4FF0E0234FF08052C3F8042DBFF349
:1072B0004F8FBFF36F8FFCF7CDFFFCF7D9FF3B6813
:1072C000D96D11B13B68019ADA653B68019A83F880
:1072D0006020FCF7BFFF002900F0BD800120FEF711
:1072E00095FC634B06461C68DFF898A1DFF898B15F
:1072F000DFF89891002C00F0A680B4F5E17F28BF5C
:107300004FF4E174FFF784FFA04202D2FFF780FF41
:107310000446A41B142CB3B20EDDBAF80000A3EB94
:10732000000C0FFA8CFCBCF1000FBCBFC01A0FFAA6
:1073300080FCBCF1140F06DDAAF80030DBF8003049
:10734000C9F800300BE0D9F80020DBF800309B1AB8
:1073500044F62062934202D901234D4A13704D49ED
:10736000DBF800200B680020D31A4FF47A72B2FBCE
:10737000F3F6DBF800300B60FEF7C4FB6B8E9BB2BC
:1073800043B10A216B8E9BB24B439842C2BF688EB9
:1073900080B248434123B3FBF6F3C3F16401D8F84C
:1073A00000304B43642193FBF1F382214C4394FB67
:1073B000F6F41C4484423EDDC8F80000D8F8000012
:1073C000EB8C9BB20BB340F6C4122B8D32499BB2AF
:1073D0005343DBF800400A68A21A934209D26B8D2E
:1073E0009AB2DBF800300B60FA2101FB02332B4A22
:1073F0001360EB8C9BB2984207DA284ADBF8003026
:1074000012689A4284BFE88C80B247F6DF72244B40
:107410009B68002BB8BF0333C3F38F03934288BF2D
:1074200000201B4B1B78002B18BF0020FEF79AFB97
:10743000FEF7EAFA28E740428442ACBFC8F80040B1
:10744000C8F80000BAE7DBF80030AAF80000C9F875
:1074500000302046B4E70A22124B1A80124B1970F2
:10746000124B1B78002B3FF40FAFFEF701FB0BE72D
:1074700098120020E0150020DC150020681600207E
:10748000841200207C120020841B00208012002027
:10749000C813002088120020901200208C120020B7
:1074A0003C12002040100020D8150020431000207E
:1074B00010B5FFF7ADFE04460020FEF7A7FB053C24
:1074C000A4B284422CBF0020012010BD38B5124D5B
:1074D0000446288C80B2C0B10020FEF797FB05233C
:1074E00000EBC000B0FBF3F303F120000123032104
:1074F0001A4680B2FDF75FFF64B12B8C9BB23BB1A3
:107500000020BDE83840FEF733B9FEF77FFBEDE71A
:107510000120F6E738BD00BF681600202DE9F04FC6
:107520009A469C4C9C4B87B01E6894F83D30804630
:10753000202B89469346109F04D00225284607B089
:10754000BDE8F08F3346192201219448FEF70CFF65
:107550000028F2D194F83C308B42EED0256884F8B4
:107560003C102B683A46D80758BF2B684FF00110E3
:107570005CBF0B432B602B68002123F400632B605E
:10758000222384F83D30402384F83E30844B21642C
:10759000A4F82AA0E362638DC4F824B023852B6885
:1075A00043F480632B602B6843F480732B60334675
:1075B000FEF7DAFE00BB236808F0FE0018613146D2
:1075C00038465FFA88F5FEF79FFE08B1236C13E09A
:1075D000236805905A69314605929B6938460593A0
:1075E000059BFEF733FE80B1236C042B04D1226887
:1075F000136843F400731360236C042B4FF00003F3
:1076000084F83C3078D1012598E723683146384624
:10761000C3F81090FEF71AFE01460028E4D1226854
:107620004FF00110136843F48073136033463A46F9
:10763000FEF79AFE0028DFD1236845F001051D61A1
:1076400031463846FEF760FE05460028BED1228D41
:1076500023689AB1012A27D11A6822F480621A603D
:1076600072B6236803905A6903929A690392039A47
:107670001A6842F400721A6062B609E004905A690E
:1076800004929A690492049A1A6842F400721A6089
:10769000DFF81081238D1BBB202284F83C3084F856
:1076A0003D2084F83E3049E7022A1A680ED142F4A0
:1076B00000621A6072B6236802905A6902929A694F
:1076C0000292029A1A6822F48062D4E742F480623D
:1076D0001A6001905A6901929B690193019BD7E757
:1076E000032B61D8012B09D131463846FEF7DEFD68
:1076F00010B3236C202B86D103251FE7022B3A46BB
:1077000033464FF00001404624D1FEF72DFE0028FD
:10771000F2D172B623681A6842F400721A601A69CC
:10772000636A591C61621A70238D013B2385638D46
:10773000013B9BB2638562B623681A69636A591C70
:1077400061621A70238D013B2385638D013B9BB2DF
:1077500063859FE7FEF708FE0028CDD122681368F5
:1077600023F48063136072B623681A69636A581C35
:1077700060621A70238D3A46013B2385638D404633
:10778000013B9BB263853346FEF7EEFD0028C1D076
:10779000B2E700BFCC130020BC160020020010008E
:1077A0000000FFFF0400010031463846FEF77EFD71
:1077B00000289ED123681A69636A591C61621A7095
:1077C000238D013B2385638D013B9BB26385236839
:1077D0005A6952077FF55EAFAFE700BF90F83C30C3
:1077E000F0B5012B32D003680E681A6A22F001024C
:1077F0001A621A6A5D689C6922F0020224F073041E
:1078000034438E683243124EB3420BD1CE6822F01D
:107810000802324325F44075D1E905673E4322F062
:10782000040235435D609C614C6809695C631A62BF
:107830009A6942F008029A619A6922F004029A61F8
:107840009A690A439A61002380F83C30F0BD00BF7A
:10785000002C0140024BC0220021186803F004BC38
:1078600020110020F8B5036805460E467BB902607A
:107870000120334601211F784C1EA4B277B1F02FAE
:1078800093F801C005D80133013189B2F3E7002034
:10789000EFE7BCF1000F01D00233F5E704EB44043D
:1078A000A400A4B2602C2AD92B68D31A184A528C8F
:1078B00092B2012A0CBF0A221422B3FBF2F304F1A4
:1078C00060021BB293FBF2F102FB11335F2B1CDD54
:1078D000A34218DC1CB2B5F90430A3420ED0FFF766
:1078E000B9FF0C4BC4F160021A8000220A4B3046EB
:1078F00001211A80FDF7E0FB0120AC80F8BDC4F146
:10790000600304EB630424B2E5E76024E3E700BF0F
:1079100068160020EA110020EC1100202DE9F34147
:107920000646DDE908040F46984640B94FF050037B
:1079300083F31188BFF36F8FBFF34F8FFEE744B916
:107940004FF0500383F31188BFF36F8FBFF34F8F56
:10795000FEE764230193019B642B08D04FF0500392
:1079600083F31188BFF36F8FBFF34F8FFEE795004E
:107970002A46A5212063019B03F076FB226B043D80
:107980002A4422F00702002F00F096807B1E04F1AB
:1079900034001F3713F8015F00F8015B0DB1BB42E3
:1079A000F8D1002384F853304346052B28BF052324
:1079B000E3626365C3F106030021A3614FF08073A6
:1079C000E165A1656161A1622461646284F860106F
:1079D00042F8043C3F4B26F0010642F8086C42F89E
:1079E0000C3C42F8201C403A2260FCF741FC3A4A29
:1079F0003A4D13683A4E013313602B68002B5ED169
:107A00002C601268012A2ED132464FF0FF3C142020
:107A10001F4602F10801C2E9011CC2E9031100FB83
:107A200003F10133062B775002F11402F1D12D4AF4
:107A300002F10803C2E9013CC2E903332A4B176093
:107A400003F10801C3E9011CC3E9031127491F60C1
:107A500001F108000F60C1E9010CC1E903002449EC
:107A60000A60244A1360244A2449136808680133D1
:107A700013600123E26A9340034314200B6000FB70
:107A80000260211DFCF756FFFCF7E4FB1C4B1B6852
:107A900073B12B68DA6AE36A9A4209D24FF0E023A5
:107AA0004FF08052C3F8042DBFF34F8FBFF36F8F99
:107AB000204602B0BDE8F08184F8347074E7104BC2
:107AC0001B68002BCFD12B68DA6AE36A9A4298BF11
:107AD0002C60C8E7D1410008C0160020E015002046
:107AE000EC150020D4160020E81600206C1B0020A6
:107AF000E4150020E8150020C8160020CC16002050
:107B0000801B002037B50446D0E90010A569B4F900
:107B10000830226901956469842B0CBF002303336C
:107B20000094FFF7FBFE03B030BD00002DE9FF41DC
:107B300000230446019340B94FF0500383F31188AA
:107B4000BFF36F8FBFF34F8FFEE7026C42B14FF070
:107B5000500383F31188BFF36F8FBFF34F8FFEE79E
:107B6000FCF7D8FE50B9019B4BB14FF0500383F3A3
:107B70001188BFF36F8FBFF34F8FFEE710460025CC
:107B80006C4E6D4FACE0A568C5B900250022A2601F
:107B90000136A663626A002A65D004F12400FDF76D
:107BA00005F8002861D04FF0E0234FF08052C3F871
:107BB000042DBFF34F8FBFF36F8F56E05F4B1B68F1
:107BC0009D4208D04FF0500383F31188BFF36F8FAD
:107BD000BFF34F8FFEE7AB6D43B94FF0500383F314
:107BE0001188BFF36F8FBFF34F8FFEE7E96A6A6DAD
:107BF000013B9142AB65C8D0002BC6D105F104080A
:107C00004046FCF7BAFEDFF838C14E4A58B9142096
:107C1000EF6A78435CF800302BB901211368B94052
:107C200023EA010313606B6D1420C3F10601EB62BC
:107C3000A9610125116805FA03F70F4300FB03C092
:107C400041461760FCF776FEA0E70021606803F06C
:107C5000E3F96368226C1344A2686360934224BF13
:107C6000236863604AE0002D9DD1FCF7F3FA04B06D
:107C7000BDE8F081019B002BF7D018B9336802935F
:107C80003B680393FCF7E6FAFCF7F6FDFCF7F0FA25
:107C900094F8443001A9FF2B08BF84F8445094F8AD
:107CA000453002A8FF2B08BF84F84550FCF7D2FAF4
:107CB000FCF7EAFD002836D1FCF7DAFAA26BE36B99
:107CC0009A421DD1FCF7C6FA04F110000199FEF7A3
:107CD00007F92046FCF7ACFFFCF7F2FEC0B101202B
:107CE000FCF7C6FAA26BE36B9A42C3D2226CA66B76
:107CF000002AAAD12368002B3FF445AF002547E7AF
:107D00002046FCF7A7FAFCF793FFFCF7D9FEE6E75D
:107D10004FF0E0234FF08052C3F8042DBFF34F8F94
:107D2000BFF36F8FDBE72046FCF782FFFCF7C8FE4E
:107D30009DE700BF641B0020841B0020E01500208D
:107D4000EC150020CC160020014B1868FFF7EEBEA2
:107D5000F01100202DE9F04385B0814688468DF86A
:107D60000720FEF7CBF80646002851D06C4F6D4C2B
:107D70003D6894F83D30202B45D12B461922012136
:107D80006948FEF7F1FA00283DD194F83C308B4267
:107D900039D0236884F83C101A684FF00110D207DC
:107DA0005EBF1A680A431A601A68002122F4006252
:107DB0001A60212384F83D30402384F83E300DF1D1
:107DC00007036362012321646385A3F10113E36266
:107DD000638D22682385136843F4807313602B46F8
:107DE0004FF4FA72FEF7C0FA48B9236829464FF4F7
:107DF000FA70C3F81090FEF787FA68B1236C236C11
:107E0000002384F83C30FEF7B1FE0026FFF79CFF0C
:107E1000304605B0BDE8F083236803905A692946CF
:107E200003929B694FF4FA700393039BFEF70EFADB
:107E300040B1236C042BE2D12268136843F4007331
:107E40001360DCE72368C3F81080238D9BB9226898
:107E5000536913F004033FD0136843F400731360B5
:107E6000202384F83D30002384F83E3084F83C30F1
:107E7000FFF76AFFCCE729464FF4FA70FEF7E6F900
:107E800040B1236C042BBED12268136843F4007305
:107E90001360B8E7616AD4F800C04B1C63620B78CA
:107EA000CCF81030638D228D013B501E9BB280B206
:107EB00020856385DCF814305B07C6D50028C4D064
:107EC0008B1C63624B78023ACCF81030638D2285AC
:107ED000013B9BB26385B8E7516911F480610ED014
:107EE0006FF480615161042121642021236384F8AF
:107EF0003C3084F83D10236C042B84D1C5E73B68EB
:107F00005B1BB3F5FA7FA3D9236C84F83C1043F0D4
:107F1000200323642023216384F83D30EBE700BF76
:107F2000BC160020CC1300200200100013B5002165
:107F3000134B0846009318221023FDF725F8522210
:107F4000104B114C1A800022B4F844000F4B80B241
:107F5000801A18BF01201A80FDF70DFCB4F84430D8
:107F600080219BB2002B14BFA722A6227820084BA9
:107F700083F8402002B0BDE81040FFF7EBBE00BF21
:107F800035DA0008EA11002068160020EC11002004
:107F9000000000202DE9F041804617460C460026DF
:107FA000404662782178FFF7D5FE054640B1A078BB
:107FB00008B1FCF74FFA0136B74204F10304EFDCD5
:107FC0002846BDE8F081000013B5144B0021009352
:107FD000102308461A46FCF7D7FF3A22104B114CE3
:107FE0001A800022104BB4F846001A800B2380B28E
:107FF000B0FBF3F0012301301A46032180B2FDF7F4
:10800000DAF902227820B4F84630084981F82E3097
:108010002A3102B0BDE81040FFF7BCBFC0D700084E
:10802000EA11002068160020EC110020000000205A
:1080300038B5124D04462B78834219D0104BC0B18D
:10804000C8221A74A1221A77782019220C49FFF746
:10805000A1FF002C14BF002220220A4B2C705A7161
:1080600014BF5F227F22DA7114BFC822C0225A7265
:1080700038BDC0221A74A022E5E700BF28110020F5
:10808000000000204410002010B50620FCF7DCFEA4
:10809000054B0446DB8998B218B1012801D020466F
:1080A00010BDFFF7C5FFFAE76816002030B585B0B0
:1080B0000546FDF723FF044668B14FF47A730F219C
:1080C00000932846012303AAFFF728FAB0FA80F4A8
:1080D0006409FFF739FE204605B030BDF7B5054607
:1080E0000F46FDF70BFF002868D000233C4C01939E
:1080F00094F83D30202B13D146F2A812394B1B685F
:10810000B3FBF2F31922534322680193019B591EDA
:10811000019163B92022236384F83C3084F83D2028
:10812000FEF724FD03B0BDE8F040FFF70DBE9369F4
:108130009907EBD494F83C30012BF1D0012384F85B
:108140003C3013680026DB0758BF13684FF07801F6
:108150005CBF43F001031360136823F400631360F2
:10816000212384F83D30102384F83E301E4B2664D2
:108170006785E362638D65629BB223856164FBB1B1
:10818000606B1A491032816219494663C0E90B617C
:108190002946FEF7A7FF23681A6842F480621A6036
:1081A0001A6842F480721A6084F83C605A6842F49B
:1081B00040725A605A6842F400625A6003B0F0BDDF
:1081C000116841F480611160116841F4807111609F
:1081D00084F83C30536843F4E0635360EEE700BF3B
:1081E000CC1300204C0000200000FFFF1D5D0008A4
:1081F0008B5D0008D1210148FFF770BF44100020BB
:1082000038B505460C46FFF725FB2846FCF76CFF02
:10821000FFF7F0FF2046BDE83840FDF743BE000001
:10822000F8B52D4DAB8D98B22C4B1B68B3F5FA6F9A
:108230004ED929896A8989B292B200293AD002318D
:108240004A43D2B2264B00249B68002BB8BF0333AD
:10825000C3F38F039B00B3FBF0F39BB29A4239D96F
:10826000204B214F1C60FFF7F5FAEB8B1F4E9BB2A2
:108270003C80348003B321461D48FCF71DFF0823D2
:1082800021461C4833803C80FCF716FFFEF764FF54
:1082900021461948FCF710FFFFF7ACFFFDF7FEFD84
:1082A000FDF70CFB044654B1FDF708FB0446FDF74F
:1082B000F5FDF8E75A22C5E701211048EAE7FDF786
:1082C000FDFA0446FDF7EAFD002CF8D00120F8BDC8
:1082D0000020FCE72046FAE768160020841B0020F7
:1082E0006812002098120020EA110020EC110020F2
:1082F000A9B60008B6B600080DB10008A4B600087B
:108300002DE9F84F0024714B714D1C60D5F8009099
:10831000FDF7D4FAB0EB040818BF4FF00108274668
:10832000A2466C4BA3F800A06B4BA3F800A0FFF78C
:1083300091FAFDF7C3FA002800F0B280D5F800905A
:10834000B8F1000F02D00024002335E001380F28D7
:10835000FAD801A353F820F091840008658400083E
:108360004983000873840008498300084983000892
:10837000498300089983000849830008498300085D
:10838000498300084983000849830008498300089D
:1083900049830008C98400082A68E31B1344B3F525
:1083A000967FD1D94D4B9A8EDB8E92B2002A6DD03A
:1083B00021342F681BB2E4B2484EC4F5967271881E
:1083C000632A1944338C98BFC8249BB289B2002B0E
:1083D00069D03C2940F2523338BF3C21994228BF32
:1083E00019460020FCF7BCFC2B68A3EB0903B3F58E
:1083F000FA6F69D83A4B012193F800B0B38E9BB263
:10840000BBF1000F58D03748374A002B08BF104641
:10841000FCF752FE01213548FCF74EFE012370881F
:108420001A46032180B2FCF7C6FF338C9BB2002BA7
:1084300045D00020FDF79CF901212C48FCF73CFEBB
:10844000B38E01219BB2BBF1000F3AD02648254ADA
:10845000002B08BF1046FCF72FFEFFF7CBFEFDF701
:108460001DFD5EE71D4B9A8E1B8F92B2B2B11BB2FF
:10847000A2E72A68E31B1344B3F5967F7FF664AF47
:10848000164B9A8EDB8E92B2002A91D05B428FE718
:10849000124B9A8E1B8F92B2002AE8D05B42E6E71D
:1084A0000446804650E70A2938BF0A21B1F5E17F2A
:1084B00028BF4FF4E17194E70B480A4AA5E7012071
:1084C000B8E70848084AC3E7BDE8F88F98120020CB
:1084D000841B0020EA110020EC1100206816002007
:1084E000281100200FB1000811B10008D0B1000818
:1084F0002DE9F84F05460F46564C574EFFF790FEB4
:10850000034600287ED1228C92B2002A7DD085B904
:10851000A38898B263889BB2834228BF03461F2B6F
:1085200081BF092003EB8303A03BB3FBF0F398BFAB
:108530002B463360208C80B2002870D00020FDF7DD
:1085400065FB4FF0050800EBC000B0FBF8F808F140
:1085500020081FFA88F84FF00009FFF77BF9B4F8FC
:108560001EA03E4BDFF8F8B01FFA8AFAA3F800907D
:10857000ABF80090BAF1000F58D049463948FCF7E3
:108580009BFD364B4946A3F8009008233648ABF8CC
:108590000030FCF791FD032101234A464046FCF7D9
:1085A0000AFF218C89B200293ED049462F48FCF7AA
:1085B00083FD00212E48FCF77FFDFEF7CDFD002155
:1085C0002C48FCF779FDFFF715FEFDF767FC3846F0
:1085D000FCF788FBB8B1238B9BB263B1264B1968BB
:1085E00049B1264B1A68238B521A4EF660219BB272
:1085F0004B439A4204D8FDF761F908287FF47EAF17
:10860000002333600120BDE8F88F35B9A3889AB202
:1086100063889BB29A4228BF1A4632608AE7FDF708
:10862000F5FA1FFA80F896E71548C0E701211548CA
:10863000FCF742FD012303211A464046FCF7BBFE2E
:10864000238C9BB21BB15046FDF792F8BBE701208B
:10865000FAE700BF6816002098120020EA110020F7
:10866000EC110020C5B60008D1B6000800B1000822
:10867000D0B100080DB10008B0150020841B002007
:1086800055B10008C0B600082DE9F84F18BB002608
:108690003546B64CFDF712F9002E00F0C280A38CCF
:1086A0009BB2002B00F0BD80102822D8102823D8C0
:1086B000DFE810F0E200050105012200FA002200C7
:1086C00022002200050122002200220022002200B6
:1086D000220022000501831E584258410121FFF764
:1086E00007FF0128D3D1A24B1A68A24B1A60BDE83C
:1086F000F88F202800F0D1804FF0000ADFF8788250
:108700009E4FA8F800A0A7F800A0FFF7A3F8E38BFE
:10871000DFF86C929BB2002B00F0F7800120FEF78F
:10872000D5FE238A9BB23BB3E3889BB223B32F23AE
:10873000A7F800A0A8F80030FCF7BCFA8C498D4BD4
:10874000904A09681B681268401A9A422CBF801828
:10875000C0188D4B984240F2CA804EF66023B0FBA1
:10876000F3F00130022180B201235246FCF723FED0
:1087700051468648FCF7A0FC45B13623A8F80030E6
:108780000823002182483B80FCF796FC4FF00A0A40
:10879000D9F800004FF0000B4FF04303B0FBFAF0A4
:1087A0005A460221A8F8003080B20123A7F800B091
:1087B000FCF701FE59467748FCF77EFCD9F800002B
:1087C0005A46B0FBFAF30AFB1300012380B21946A4
:1087D000FCF7F1FD59467048FCF76EFC4FF043037F
:1087E000A8F8003008233B80FEF7B6FC59466B48DA
:1087F000FCF762FCFFF7FEFC238C694F9BB2002D57
:1088000000F00181002B00F0FB80E38D9BB21F2B59
:1088100040F2D980092203EB8303A03BB3FBF2F3C0
:10882000D2E010282AD810283FF666AF01A353F8EB
:1088300020F000BF79880008D7880008D788000892
:10884000F9860008CB880008F9860008F986000838
:10885000F9860008EF860008F9860008F986000806
:10886000F9860008F9860008F9860008F9860008EC
:10887000F9860008EF86000800253DE720287FF4F0
:108880003BAFA38C9BB2002B3FF436AF4FF47A7111
:108890004448FFF7B5FC01262EE74FF47A714248B1
:1088A000FFF7AEFC002627E7E38D9BB2002B3FF4D9
:1088B00023AFA38C9BB2012B08BF35461CE74FF4B6
:1088C000FA713A48FFF79CFC16E7E38D9BB2002B48
:1088D00018BF012510E76788FFF712FD6388BFB254
:1088E0009BB2BB423FF408AFFEF7BEFA04E74FF479
:1088F0007A73B0FBF3F00130022180B201235246BB
:10890000FCF759FD51462A4834E72A4B1978C9B17A
:10891000FEF74EFC28480121FCF7CEFB0120FEF7B4
:10892000D5FD55B10220FCF723FF0021D9F8000046
:10893000FDF7FEF8FCF780FF5CE701211E48FCF71D
:10894000BBFBF2E7D9F80000FDF7F2F8FCF774FF83
:10895000A5B30220FCF70CFF0120FEF7B7FD0121B3
:108960001548FCF7A9FBFEF723FC43E76816002037
:10897000841B0020AC150020EA110020EC1100201F
:10898000D0160020B0150020B882010009B10008FF
:108990000FB1000807B100080BB100080DB10008C5
:1089A000981200202CB7000831B7000838B700082B
:1089B00002B1000828110020D0B100080121194897
:1089C000FCF77AFBC8E700233B60FFF729FC8046F1
:1089D00000287FF488AEFCF785F9C8B9DFF8488035
:1089E0000020FDF713F998F80030C3B1002442F2DB
:1089F00010710E483C60FFF703FC88F8004076E6F3
:108A0000E38D9BB2E0E70BB16388FFE66388F8E78C
:108A100041464046FFF76CFD0028DFD067E6FDF7D2
:108A20003DFA37E6D0B10008C813002040B700086F
:108A3000002373B500934FF6FF7304460C4EADF858
:108A40000430214668463268FEF70CFF0546FCF705
:108A500035FF38B9002DF4D0FFF7CCFB2820FDF707
:108A6000FFF9EEE7431E5842584102B070BD00BF07
:108A7000841B002008B50A48FFF7DAFF68B1FF2120
:108A80004C22084802F0F0FAFEF756FAFEF7ECF92D
:108A90004FF4FA610448FFF7B3FB002008BD00BFA4
:108AA0008EB6000868160020EBB600082DE9F047E6
:108AB0002F48FFF7BDFF002857D02E4E2E4F002520
:108AC0002C46FDF78DF84FF00009DFF8B080044424
:108AD000FEF7C0FE01213846A6F80090A8F80090E5
:108AE000FCF7EAFAC5F3850A5FFA89F39A4506D9D5
:108AF00001213846FCF7E0FA09F10109F4E7FFF734
:108B000079FB01356420FDF7ABF9102DD9D148F27E
:108B1000E803C4F30F145C43642340F23D19E40BF3
:108B20005C43B4FBF9F3164AB4F59E7F128E154AE6
:108B30001FFA83F91360C2D949461720FCF710F9D0
:108B4000FEF788FE002328463380A8F80030FCF7A3
:108B50000FFE012348461A460421FCF72CFCFFF7C0
:108B600049FB4FF49660FDF77BF90020BDE8F087E4
:108B700077B60008EA11002007B10008EC110020C8
:108B800068160020B41500202DE9F047FEF762FEBC
:108B90004FF00007344E354D354BAC8D4FF00A0A7F
:108BA000A0B29C680123002CB8BF0334C4F38F0427
:108BB000A400B4FBF0F4A4B2B4FBFAF9DFF8B4807B
:108BC0001A46022148463780A8F80070FCF7F3FBEC
:108BD00001212948FCF770FA01220AFB19401146CD
:108BE000002380B2FCF7E7FB01212448FCF764FA7C
:108BF000FCF764FE082809D818B30138072820D8E4
:108C0000DFE800F01C251F061F1F1F06102818D1C3
:108C1000FEF72AF901230024A88D1A46032180B209
:108C20003480A8F80040FCF7C6FBFFF7E3FA4FF4E6
:108C30007A70FDF737F92046BDE8F0871520FCF77C
:108C400003F9FFF7D7FA2820FDF70AF9A3E7AB8D60
:108C50009BB2B3F5B47F94BF4FF4617303F1FF335C
:108C60009BB2AB85AB8DECE7EA11002068160020C3
:108C700068120020EC11002007B100080DB10008B7
:108C8000F7B504460D4616461F46FDF737F980B185
:108C90004FF4FA733246009329463B462046FEF7CE
:108CA0003DFC08B1FDF762FF03B0BDE8F040FFF7FF
:108CB0004BB803B0F0BD00002DE98048142091B0FE
:108CC000FDF7CEF80023804C3A202360FFF7EEF941
:108CD000002800F086800D223A207C49FFF75AF9DF
:108CE00000287ED0022332202360FDF7B9F800224D
:108CF000774B1A60774BDB8A9BB21BB14FF4FA605B
:108D0000FDF7AEF8102200210CA802F0ADF91022F8
:108D1000002108A802F0A8F91022002400210DEB80
:108D2000020002F0A1F9274626464FF0030B254624
:108D3000DFF8A4A1674BC822B3F810801FFA88F3AC
:108D400040F6E44802FB138301935F4B1B68022B40
:108D500059D1062301213A2002AAFFF791FF0123EE
:108D600010213A2002AABDF80840BDF80A70BDF8EB
:108D70000C60FFF785FF9DF908309DF808B0002BC7
:108D8000E4BAFFBAF6BA5BDACBF3410B514BDB899D
:108D90009BB2022B07D1BBF1030F04D0BBFA8BF0BF
:108DA0004009FFF745F910AB03EB450323F8104CDE
:108DB00023F8207C23F8306C9AF8003001350CA899
:108DC00008A9002B42D12A466B000DF1100C072A8E
:108DD00039D801321C525F5223F80C60D2B20233F0
:108DE000F5E73220FFF762F938B10C2232203B4917
:108DF000FFF7D0F808B1032375E700210720FBF740
:108E0000AFFF01236FE7032BC0D10623A821322037
:108E100002AAFFF735FF0123B521322002AABDF9CE
:108E20000840BDF90A70BDF90C60FFF729FF9DF8F5
:108E300008B04FEA9B0B0BF1FF3B5FFA8BFBA5E7FA
:108E40004FF0030BA2E701238AF80030814600208F
:108E5000884602460146034605F007050DF1100C51
:108E600039F902EB0130734438F902EBC0B27144B6
:108E70003CF902EB08287244F2D1002BB8BF07334B
:108E8000C4EBE303002BB8BF5B420029B8BF073136
:108E9000C7EBE1010029B8BF4942002AB8BF073239
:108EA000C6EBE202002A1944B8BF5242019B0A44B1
:108EB0009342B8BF0A4B4FF06400BEBF1A68044B20
:108EC0001A60FCF7CDFF35E79C0000206ED5000846
:108ED000B015002068160020961200204AD5000820
:108EE000841B00202DE9F04F00242E4B85B01B6819
:108EF000DFF8B4A0DFF8B4B001900293294B029AD6
:108F00001B684FF4FA71A3EB0209642303FB09F217
:108F1000B2FBF1F2D2B22546C2F196045243544359
:108F200041F2883294FBF2F46022E4B25443B4FB81
:108F3000F3F4E4B2944228BF1446019B121BD6B24C
:108F400053BB27469846DAF800000392411938448B
:108F500002F070F8164B039A18684119384402F071
:108F600069F8DAF8000022460BEB0601404402F0F3
:108F700061F80F4B224618680E4B4044991902F0D5
:108F800059F8FFF737F91420FCF76AFFB9F5FA7FB3
:108F9000B4D905B0BDE8F08FB0460026651B374652
:108FA000EDB2D0E7841B0020201100202911002001
:108FB00024110020891100202DE9F04F0123002504
:108FC0008D4A8DB0CDE9053513704FF6FF732F46EE
:108FD000142603908DF813508DF81250ADF81C3004
:108FE000039AEBB206FB03239C684CB1DB6813B910
:108FF0000137FFB202E098470028F9D10135EFE7C9
:1090000001232546A246CDE90044DFF8F091DFF8C0
:10901000F0B1029329E101237A494FF014080B7053
:109020000021059B022B01BF774B13606033336037
:10903000764B1980764B1980FEF70CFC9DF81300D7
:10904000039B08FB00339B68984705980021022882
:10905000704A41D18022ADF8271021218DF82020BF
:109060008DF822208DF8242040226B4B8DF82110A2
:10907000D87909218DF823008DF8250008A88DF8EE
:109080002620FFF72BF8644B5E7BB21C02F0070230
:109090005A730132DA73FFF7ADF84046FCF7E0FE91
:1090A000F600F6B206F1010810365FFA88F8F6B25B
:1090B00046455A4B19D308F03F0242F04002802146
:1090C0005A767820FEF746FE08F101081420FCF7D6
:1090D000C7FE5FFA88F8EBE74B4B136060333360F1
:1090E000431E58425841FFF7FDFE0023454A0593B1
:1090F0001370DBF80020D9F800309B1A40F6B73225
:1091000093423ED914229DF813305343039AD35C03
:10911000002B36D04248273330F8133000F1E801F5
:109120001944D9F8002006A8FEF79CFB029B03B95E
:1091300020B1FFF75FF82820FCF792FEFCF7BEFB9A
:10914000009B0646834218BF002503AB08930DF130
:10915000130309930DF112030A93082805AB0B932F
:109160003DD8002867D0431E0022072B63D8DFE8D4
:1091700013F05B00A9006200B500620062006200AB
:10918000D0000026214B1E80214B1E80FEF762FB83
:1091900014219DF81320039B01FB02339B68984721
:1091A00014B1019BCBB101961023B3FBF7F201235D
:1091B00093409DF81320013B1201B2FBF7F29BB2E2
:1091C000D2B29340134A126882F85F30154AC3F353
:1091D0000723126882F85F30ABE70194A9E71028F3
:1091E00029D101238DF81230002306934FF6FF7327
:1091F000ADF81C301FE000BF64120020841B00206B
:10920000AC1500204210002055100020EA1100206B
:10921000EC1100202011002044100020000000204C
:1092200048B2000824110020069B002B48D108A852
:10923000FBF786FE0446C5F59673632BDBF800202A
:10924000D9F8003098BFC8259B1A47F23052934294
:1092500008D901238DF81230002306934FF6FF73CF
:10926000ADF81C3000230293009614229DF81330B1
:10927000039902FB03118B68002B5CD09DF8123020
:10928000002B58D1059B002B3FF433AF2B4B2C4ABE
:109290002C4E136060333360CB68002B3FF4BBAEC1
:1092A0009847274A00287FF4B6AE9DF81330013363
:1092B0008DF81330244B136060333360009ED3E786
:1092C000069293E706990029FAD19DF813300C46CF
:1092D00001338DF8133002230593ACE7D9F8003041
:1092E0000AF596722B449342A5D908A8FBF728FEED
:1092F000041E14BF4FF47A7A4FF0000AD9F80030F8
:109300009A44002306934FF6FF732135ADF81C30C5
:1093100091E7D9F80030A3EB0A032B44B3F5967F0D
:1093200089D99DF81330D9F800A001338DF8133096
:1093300002230593E5E70DB0BDE8F08F2911002069
:109340002011002024110020551000202DE99F48F5
:109350000024AA4BAA481C70AA4BAB4FAB4EDFF8B7
:10936000B0921860112200F16003AA4911383C80C4
:109370003480C9F8003001F04FFEA74D192229466C
:109380007820FEF707FE002818BF0B240134092CB3
:10939000F4DDAF22A14BDFF888829F4C5A70B8F8F9
:1093A0004630022284F82E3004F12A017820FEF79C
:1093B000F1FDB8F8443080219BB2002B14BFA722E6
:1093C000A622782084F84020FEF7C4FC5323954A57
:1093D0009548195C013B02F8011BFAD254239349CA
:1093E000934A11F80109013B02F8010BF9D1FCF78E
:1093F000F7FBB8F80E008F4D00F00100FEF718FEE5
:109400002C68DFF834A2DFF834B204F57A642B68F4
:109410009C4231D9DAF800305B4507D02C68FCF764
:109420004DFA00B12C68FCF739FDF0E7754B824A24
:1094300018681146002300F1010C91F805E0023193
:1094400000F813E091F802E00CF813E00133302B40
:10945000F3D10023D9F80010481C92F865C00232FD
:1094600001F813C092F862C000F813C00133302B2A
:10947000F3D1FEF7BFFED2E7714B1B7823B142F266
:1094800010717048FEF7BCFE6F4C23681BB90520B5
:10949000FCF7E6FCF9E7012B0ED1B8F83C309BB2A3
:1094A000012B09D81D20FBF7CFFCFDF7DDFC42F2B4
:1094B00010716648FEF7A4FEB8F81650ADB235B18B
:1094C000B8F8160001250138C0B2FFF7DDF8002317
:1094D0000393FCF7F3F900285AD1002425464FF0F6
:1094E000000AB8F82C005A4B514680B2C3F800A0CD
:1094F000FCF7E6FA5046FCF789FBAF23474A3128D0
:109500008246537015D8B8F810309BB28BB14949D8
:10951000504A0B6812689B1A4EF66022934208D993
:109520000B684D4909685B1A934282BFAE233B4AE0
:1095300053704FF0000BFEF78DF9394BA6F800B0D1
:109540009B8BA7F800B099B2002900F04981FDF784
:10955000AFFF002800F0168159464048FBF7ACFDEC
:109560004323338008233B80FDF7F6FD00213C4870
:10957000FBF7A2FD002C00F0B581214A214B002011
:109580001A6002F16003C9F80030FFF7ABFCA0E7F6
:10959000AF23224A5370002D40F0DB8001380728AA
:1095A00000F2D780DFE810F0D700E100D500D1004D
:1095B000D500D500D50008000024DFF8A8A0DFF80A
:1095C000A8B02A4DFEF746F9002150463180398077
:1095D000FBF772FD082300215BF824003B803180FB
:1095E000FBF76AFD631E0B2B00F28980DFE803F0B6
:1095F000404B4D4F55577074859BA4A728110020F0
:109600005510002020110020EC110020EA1100204C
:109610002411002044D8000800000020441000203D
:10962000681600200415002028D30008CFD30008B6
:1096300058150020841B002000F8000855AA0DF0E2
:1096400064160020F1B600089C000020FAB600085D
:1096500098120020B0150020AC150020DCB60008E0
:109660000DB1000813B1000814B2000804B10008DD
:109670009F4B1868FBF72CF901230022052180B2CB
:10968000FBF799FE3BE09B4BF3E79B4BF1E79B4BD2
:1096900018686423B0FBF3F0EEE7994BF8E7994BB9
:1096A000986848F2E8030028B8BF0330C0F38F0081
:1096B00058436423C00B584340F23D13B0FBF3F012
:1096C000914B1B8E914B1860012300220621D6E797
:1096D0000020FCF79BFACFE764208D4B9B68002BA2
:1096E000B8BF0333C3F3CE03A3F59B53053B4343FA
:1096F00040F2E23093FBF0F0E6E7FDF72DFDFEF7D8
:1097000079FDFCF7DBF802283FF4E7AE012807D12A
:109710000D230134E4B2B4FBF3F203FB1244E4B2D0
:10972000FCF7BCFB4EE700217A4B1A687A4B53F8E2
:109730002200FBF7C1FCE2E700212846F9E7FDF72C
:1097400067FD01230022032199E7FEF7D9FDFDF70C
:109750008BFB0024C3E6FDF7ABFE044600287FF434
:10976000BCAEFEF791FF0125B9E66C48FFF724FC7B
:10977000FDF77AFB6A4B6B4A012413606033C9F82A
:109780000030F0E7604B5B8B9BB26BB1BAF1370FE7
:109790000AD94FF47A72594B1B68B3FBF2F102FB02
:1097A0001133B3F5967F02D30120FDF78FFE4923D5
:1097B0004FF0000ADFF850B10321BBF802003380FC
:1097C0005246012380B2A7F800A0FBF7F4FDBBF8D6
:1097D000201089B211B151465348BFE65348BDE647
:1097E000534B93F800B0BBF1000F48D0514B5422BB
:1097F00000930C201023FBF7C7FBFDF7D9FCBAF14F
:10980000370F47D8BAF12C0F039B98BF002303935F
:10981000FDF74EFE00283FD1039B002B3FF4AAAE7C
:10982000404B1B68BBF1000F39D0002103F1360219
:109830005F3302F8011F9A42FBD10021D9F80030B2
:1098400003F136025F3302F8011F9342FBD1382344
:109850003980338000283CD12B4B5B8B9BB253B1BA
:109860004FF48272254B1B68B3FBF2F102FB1133FC
:109870009F2B7FF67FAE0020FDF728FE7AE62E4B69
:1098800054220093594610235846FBF77DFB54237E
:109890003380B2E70123BAE700230393C0E75A1EDF
:1098A000283302F801BF9A42FBD10022D9F80030D8
:1098B000591E283301F8012F8B42FBD132803A80A8
:1098C0000028C9D000211D4B2922009308461023EF
:1098D00005E01A4B29220093002110233720FBF7C3
:1098E00053FB47E6FEF786FCFCF7D8FAF1E500BF2C
:1098F000040500206C090020D40D0020841B0020EA
:10990000B01500203C12002068160020B41500207D
:10991000541200209C000020F8B10008C8DD0008A7
:10992000291100202011002000B1000855B10008C5
:109930002811002028D30008041500207EDB000831
:1099400008B50248FFF738FB002008BD8CDD000891
:1099500008B50248FFF730FB002008BD98D5000885
:1099600008B50248FFF728FB002008BDE0D7000833
:1099700008B50248FFF720FB002008BDD0DB000837
:1099800008B50248FFF718FB002008BD88D2000880
:1099900070477047704770477047704708B5FAF7CF
:1099A000B9FF012813D04FF0500383F31188BFF3A0
:1099B0006F8FBFF34F8FFAF7F1FF28B14FF0E0231D
:1099C0004FF08052C3F8042D002383F3118808BDA3
:1099D0000148FAF7ADBC00BFFC1200202DE9F041B0
:1099E000624C23685A68960623D51A68950720D5D5
:1099F000A26AD0065EBFA26A42F40072A2629A68AE
:109A000002F46022B2F5602F10D1E26872B95A6890
:109A100022F020025A60A26A22F48072A262A26A34
:109A2000D1045EBFA26A42F00102A2626FF012028C
:109A30001A6023685A68120640F183801A68570733
:109A40007FD5A26AD6065EBFA26A42F40052A26225
:109A50009A6802F4E042B2F5E04F0AD05A68550520
:109A600016D49A6802F46022B2F5602F10D1E26831
:109A700072B95A6822F080025A60A36A23F48053B4
:109A8000A362A36AD8055EBFA36A43F00103A36281
:109A9000374B1D68002D50D0FAF7B4FBEFF3118758
:109AA0004FF0500383F31188BFF36F8FBFF34F8FD5
:109AB000022395F8602085F86030EB6D012A03F1F0
:109AC0000103D6B2EB6502D087F3118835E0AB6AAB
:109AD00043B14FF0500383F31188BFF36F8FBFF38F
